{
    "_format": "hh-sol-artifact-1",
    "contractName": "DocumentStorage",
    "sourceName": "contracts/DocumentStorage.sol",
    "abi": [
        {
            "inputs": [],
            "stateMutability": "nonpayable",
            "type": "constructor"
        },
        {
            "anonymous": false,
            "inputs": [
                {
                    "indexed": true,
                    "internalType": "uint256",
                    "name": "documentId",
                    "type": "uint256"
                },
                {
                    "indexed": false,
                    "internalType": "string",
                    "name": "status",
                    "type": "string"
                },
                {
                    "indexed": true,
                    "internalType": "address",
                    "name": "owner",
                    "type": "address"
                }
            ],
            "name": "DocumentUpdated",
            "type": "event"
        },
        {
            "anonymous": false,
            "inputs": [
                {
                    "indexed": true,
                    "internalType": "uint256",
                    "name": "documentId",
                    "type": "uint256"
                },
                {
                    "indexed": false,
                    "internalType": "string",
                    "name": "name",
                    "type": "string"
                },
                {
                    "indexed": true,
                    "internalType": "address",
                    "name": "owner",
                    "type": "address"
                }
            ],
            "name": "DocumentUploaded",
            "type": "event"
        },
        {
            "inputs": [],
            "name": "documentCount",
            "outputs": [
                {
                    "internalType": "uint256",
                    "name": "",
                    "type": "uint256"
                }
            ],
            "stateMutability": "view",
            "type": "function"
        },
        {
            "inputs": [
                {
                    "internalType": "uint256",
                    "name": "",
                    "type": "uint256"
                }
            ],
            "name": "documents",
            "outputs": [
                {
                    "internalType": "string",
                    "name": "name",
                    "type": "string"
                },
                {
                    "internalType": "string",
                    "name": "client1",
                    "type": "string"
                },
                {
                    "internalType": "string",
                    "name": "client2",
                    "type": "string"
                },
                {
                    "internalType": "string",
                    "name": "description",
                    "type": "string"
                },
                {
                    "internalType": "address",
                    "name": "owner",
                    "type": "address"
                },
                {
                    "internalType": "string",
                    "name": "status",
                    "type": "string"
                }
            ],
            "stateMutability": "view",
            "type": "function"
        },
        {
            "inputs": [
                {
                    "internalType": "uint256",
                    "name": "_documentId",
                    "type": "uint256"
                }
            ],
            "name": "retrieveDocument",
            "outputs": [
                {
                    "internalType": "string",
                    "name": "",
                    "type": "string"
                },
                {
                    "internalType": "string",
                    "name": "",
                    "type": "string"
                },
                {
                    "internalType": "address",
                    "name": "",
                    "type": "address"
                }
            ],
            "stateMutability": "view",
            "type": "function"
        },
        {
            "inputs": [
                {
                    "internalType": "uint256",
                    "name": "_documentId",
                    "type": "uint256"
                },
                {
                    "internalType": "string",
                    "name": "_description",
                    "type": "string"
                },
                {
                    "internalType": "string",
                    "name": "_status",
                    "type": "string"
                }
            ],
            "name": "updateDocument",
            "outputs": [],
            "stateMutability": "nonpayable",
            "type": "function"
        },
        {
            "inputs": [
                {
                    "internalType": "string",
                    "name": "_name",
                    "type": "string"
                },
                {
                    "internalType": "string",
                    "name": "_client1",
                    "type": "string"
                },
                {
                    "internalType": "string",
                    "name": "_client2",
                    "type": "string"
                },
                {
                    "internalType": "string",
                    "name": "_description",
                    "type": "string"
                },
                {
                    "internalType": "string",
                    "name": "_status",
                    "type": "string"
                }
            ],
            "name": "uploadDocument",
            "outputs": [],
            "stateMutability": "nonpayable",
            "type": "function"
        }
    ],
    "bytecode": "0x608060405234801561001057600080fd5b50600060018190555061114c806100286000396000f3fe608060405234801561001057600080fd5b50600436106100575760003560e01c8063552ab8151461005c578063a5b16b2e14610078578063c2ed2b0514610096578063d18e1a31146100cb578063e5bffe1b146100fd575b600080fd5b610076600480360381019061007191906109c1565b610119565b005b610080610294565b60405161008d9190610a5b565b60405180910390f35b6100b060048036038101906100ab9190610a76565b61029a565b6040516100c296959493929190610b63565b60405180910390f35b6100e560048036038101906100e09190610a76565b61059e565b6040516100f493929190610be7565b60405180910390f35b61011760048036038101906101129190610c2c565b61070b565b005b8260008082815260200190815260200160002060040160009054906101000a900473ffffffffffffffffffffffffffffffffffffffff1673ffffffffffffffffffffffffffffffffffffffff163373ffffffffffffffffffffffffffffffffffffffff16146101bd576040517f08c379a00000000000000000000000000000000000000000000000000000000081526004016101b490610d7f565b60405180910390fd5b8260008086815260200190815260200160002060030190816101df9190610fab565b5060008085815260200190815260200160002060060142908060018154018082558091505060019003906000526020600020016000909190919091505581600080868152602001908152602001600020600501908161023e9190610fab565b503373ffffffffffffffffffffffffffffffffffffffff16847fd2e390b154f40af6139cbf760f6b2ac0ebb91494b17ab4e4b231c92e7c480b3184604051610286919061107d565b60405180910390a350505050565b60015481565b60006020528060005260406000206000915090508060000180546102bd90610dce565b80601f01602080910402602001604051908101604052809291908181526020018280546102e990610dce565b80156103365780601f1061030b57610100808354040283529160200191610336565b820191906000526020600020905b81548152906001019060200180831161031957829003601f168201915b50505050509080600101805461034b90610dce565b80601f016020809104026020016040519081016040528092919081815260200182805461037790610dce565b80156103c45780601f10610399576101008083540402835291602001916103c4565b820191906000526020600020905b8154815290600101906020018083116103a757829003601f168201915b5050505050908060020180546103d990610dce565b80601f016020809104026020016040519081016040528092919081815260200182805461040590610dce565b80156104525780601f1061042757610100808354040283529160200191610452565b820191906000526020600020905b81548152906001019060200180831161043557829003601f168201915b50505050509080600301805461046790610dce565b80601f016020809104026020016040519081016040528092919081815260200182805461049390610dce565b80156104e05780601f106104b5576101008083540402835291602001916104e0565b820191906000526020600020905b8154815290600101906020018083116104c357829003601f168201915b5050505050908060040160009054906101000a900473ffffffffffffffffffffffffffffffffffffffff169080600501805461051b90610dce565b80601f016020809104026020016040519081016040528092919081815260200182805461054790610dce565b80156105945780601f1061056957610100808354040283529160200191610594565b820191906000526020600020905b81548152906001019060200180831161057757829003601f168201915b5050505050905086565b606080600080600080868152602001908152602001600020905080600001816003018260040160009054906101000a900473ffffffffffffffffffffffffffffffffffffffff168280546105f190610dce565b80601f016020809104026020016040519081016040528092919081815260200182805461061d90610dce565b801561066a5780601f1061063f5761010080835404028352916020019161066a565b820191906000526020600020905b81548152906001019060200180831161064d57829003601f168201915b5050505050925081805461067d90610dce565b80601f01602080910402602001604051908101604052809291908181526020018280546106a990610dce565b80156106f65780601f106106cb576101008083540402835291602001916106f6565b820191906000526020600020905b8154815290600101906020018083116106d957829003601f168201915b50505050509150935093509350509193909250565b6001600081548092919061071e906110ce565b91905055506000806000600154815260200190815260200160002090508581600001908161074c9190610fab565b508481600101908161075e9190610fab565b50838160020190816107709190610fab565b50828160030190816107829190610fab565b50338160040160006101000a81548173ffffffffffffffffffffffffffffffffffffffff021916908373ffffffffffffffffffffffffffffffffffffffff160217905550818160050190816107d79190610fab565b503373ffffffffffffffffffffffffffffffffffffffff166001547f4fd219cfe4cdb4cc7c30e1246b0a007173aa37b0ecbce767225031e7b310d5ea88604051610821919061107d565b60405180910390a3505050505050565b6000604051905090565b600080fd5b600080fd5b6000819050919050565b61085881610845565b811461086357600080fd5b50565b6000813590506108758161084f565b92915050565b600080fd5b600080fd5b6000601f19601f8301169050919050565b7f4e487b7100000000000000000000000000000000000000000000000000000000600052604160045260246000fd5b6108ce82610885565b810181811067ffffffffffffffff821117156108ed576108ec610896565b5b80604052505050565b6000610900610831565b905061090c82826108c5565b919050565b600067ffffffffffffffff82111561092c5761092b610896565b5b61093582610885565b9050602081019050919050565b82818337600083830152505050565b600061096461095f84610911565b6108f6565b9050828152602081018484840111156109805761097f610880565b5b61098b848285610942565b509392505050565b600082601f8301126109a8576109a761087b565b5b81356109b8848260208601610951565b91505092915050565b6000806000606084860312156109da576109d961083b565b5b60006109e886828701610866565b935050602084013567ffffffffffffffff811115610a0957610a08610840565b5b610a1586828701610993565b925050604084013567ffffffffffffffff811115610a3657610a35610840565b5b610a4286828701610993565b9150509250925092565b610a5581610845565b82525050565b6000602082019050610a706000830184610a4c565b92915050565b600060208284031215610a8c57610a8b61083b565b5b6000610a9a84828501610866565b91505092915050565b600081519050919050565b600082825260208201905092915050565b60005b83811015610add578082015181840152602081019050610ac2565b60008484015250505050565b6000610af482610aa3565b610afe8185610aae565b9350610b0e818560208601610abf565b610b1781610885565b840191505092915050565b600073ffffffffffffffffffffffffffffffffffffffff82169050919050565b6000610b4d82610b22565b9050919050565b610b5d81610b42565b82525050565b600060c0820190508181036000830152610b7d8189610ae9565b90508181036020830152610b918188610ae9565b90508181036040830152610ba58187610ae9565b90508181036060830152610bb98186610ae9565b9050610bc86080830185610b54565b81810360a0830152610bda8184610ae9565b9050979650505050505050565b60006060820190508181036000830152610c018186610ae9565b90508181036020830152610c158185610ae9565b9050610c246040830184610b54565b949350505050565b600080600080600060a08688031215610c4857610c4761083b565b5b600086013567ffffffffffffffff811115610c6657610c65610840565b5b610c7288828901610993565b955050602086013567ffffffffffffffff811115610c9357610c92610840565b5b610c9f88828901610993565b945050604086013567ffffffffffffffff811115610cc057610cbf610840565b5b610ccc88828901610993565b935050606086013567ffffffffffffffff811115610ced57610cec610840565b5b610cf988828901610993565b925050608086013567ffffffffffffffff811115610d1a57610d19610840565b5b610d2688828901610993565b9150509295509295909350565b7f596f7520617265206e6f742074686520646f63756d656e74206f776e65722e00600082015250565b6000610d69601f83610aae565b9150610d7482610d33565b602082019050919050565b60006020820190508181036000830152610d9881610d5c565b9050919050565b7f4e487b7100000000000000000000000000000000000000000000000000000000600052602260045260246000fd5b60006002820490506001821680610de657607f821691505b602082108103610df957610df8610d9f565b5b50919050565b60008190508160005260206000209050919050565b60006020601f8301049050919050565b600082821b905092915050565b600060088302610e617fffffffffffffffffffffffffffffffffffffffffffffffffffffffffffffffff82610e24565b610e6b8683610e24565b95508019841693508086168417925050509392505050565b6000819050919050565b6000610ea8610ea3610e9e84610845565b610e83565b610845565b9050919050565b6000819050919050565b610ec283610e8d565b610ed6610ece82610eaf565b848454610e31565b825550505050565b600090565b610eeb610ede565b610ef6818484610eb9565b505050565b5b81811015610f1a57610f0f600082610ee3565b600181019050610efc565b5050565b601f821115610f5f57610f3081610dff565b610f3984610e14565b81016020851015610f48578190505b610f5c610f5485610e14565b830182610efb565b50505b505050565b600082821c905092915050565b6000610f8260001984600802610f64565b1980831691505092915050565b6000610f9b8383610f71565b9150826002028217905092915050565b610fb482610aa3565b67ffffffffffffffff811115610fcd57610fcc610896565b5b610fd78254610dce565b610fe2828285610f1e565b600060209050601f8311600181146110155760008415611003578287015190505b61100d8582610f8f565b865550611075565b601f19841661102386610dff565b60005b8281101561104b57848901518255600182019150602085019450602081019050611026565b868310156110685784890151611064601f891682610f71565b8355505b6001600288020188555050505b505050505050565b600060208201905081810360008301526110978184610ae9565b905092915050565b7f4e487b7100000000000000000000000000000000000000000000000000000000600052601160045260246000fd5b60006110d982610845565b91507fffffffffffffffffffffffffffffffffffffffffffffffffffffffffffffffff820361110b5761110a61109f565b5b60018201905091905056fea2646970667358221220cfc879cf080272b313c64ee082b8fea0e33309154a062598b2042e2f87319bb064736f6c63430008180033",
    "linkReferences": {},
    "deployedLinkReferences": {}
}