{
    "_format": "hh-sol-artifact-1",
    "contractName": "UserRegistration",
    "sourceName": "contracts/UserRegistration.sol",
    "abi": [
        {
            "anonymous": false,
            "inputs": [
                {
                    "indexed": true,
                    "internalType": "address",
                    "name": "user",
                    "type": "address"
                },
                {
                    "indexed": false,
                    "internalType": "string",
                    "name": "name",
                    "type": "string"
                },
                {
                    "indexed": false,
                    "internalType": "bool",
                    "name": "isVerified",
                    "type": "bool"
                }
            ],
            "name": "UserRegistered",
            "type": "event"
        },
        {
            "inputs": [
                {
                    "internalType": "string",
                    "name": "_name",
                    "type": "string"
                }
            ],
            "name": "registerUser",
            "outputs": [],
            "stateMutability": "nonpayable",
            "type": "function"
        },
        {
            "inputs": [
                {
                    "internalType": "address",
                    "name": "",
                    "type": "address"
                }
            ],
            "name": "users",
            "outputs": [
                {
                    "internalType": "string",
                    "name": "name",
                    "type": "string"
                },
                {
                    "internalType": "address",
                    "name": "walletAddress",
                    "type": "address"
                },
                {
                    "internalType": "bool",
                    "name": "isVerified",
                    "type": "bool"
                }
            ],
            "stateMutability": "view",
            "type": "function"
        },
        {
            "inputs": [
                {
                    "internalType": "address",
                    "name": "_userAddress",
                    "type": "address"
                }
            ],
            "name": "verifyUser",
            "outputs": [],
            "stateMutability": "nonpayable",
            "type": "function"
        }
    ],
    "bytecode": "0x608060405234801561001057600080fd5b50610d16806100206000396000f3fe608060405234801561001057600080fd5b50600436106100415760003560e01c80634d81312014610046578063704f1b9414610062578063a87430ba1461007e575b600080fd5b610060600480360381019061005b9190610573565b6100b0565b005b61007c600480360381019061007791906106e6565b61020c565b005b61009860048036038101906100939190610573565b610422565b6040516100a7939291906107d8565b60405180910390f35b8073ffffffffffffffffffffffffffffffffffffffff163373ffffffffffffffffffffffffffffffffffffffff161461011e576040517f08c379a000000000000000000000000000000000000000000000000000000000815260040161011590610888565b60405180910390fd5b60016000808373ffffffffffffffffffffffffffffffffffffffff1673ffffffffffffffffffffffffffffffffffffffff16815260200190815260200160002060010160146101000a81548160ff0219169083151502179055508073ffffffffffffffffffffffffffffffffffffffff167f0b2d2fe99b0620e0994de6f522eb19dcc5b5fd39b27be67cea0547c4ed9dbdfc6000808473ffffffffffffffffffffffffffffffffffffffff1673ffffffffffffffffffffffffffffffffffffffff16815260200190815260200160002060000160016040516102019291906109a1565b60405180910390a250565b600073ffffffffffffffffffffffffffffffffffffffff166000803373ffffffffffffffffffffffffffffffffffffffff1673ffffffffffffffffffffffffffffffffffffffff16815260200190815260200160002060010160009054906101000a900473ffffffffffffffffffffffffffffffffffffffff1673ffffffffffffffffffffffffffffffffffffffff16146102dc576040517f08c379a00000000000000000000000000000000000000000000000000000000081526004016102d390610a1d565b60405180910390fd5b60405180606001604052808281526020013373ffffffffffffffffffffffffffffffffffffffff168152602001600015158152506000803373ffffffffffffffffffffffffffffffffffffffff1673ffffffffffffffffffffffffffffffffffffffff16815260200190815260200160002060008201518160000190816103639190610bde565b5060208201518160010160006101000a81548173ffffffffffffffffffffffffffffffffffffffff021916908373ffffffffffffffffffffffffffffffffffffffff16021790555060408201518160010160146101000a81548160ff0219169083151502179055509050503373ffffffffffffffffffffffffffffffffffffffff167f0b2d2fe99b0620e0994de6f522eb19dcc5b5fd39b27be67cea0547c4ed9dbdfc826000604051610417929190610cb0565b60405180910390a250565b6000602052806000526040600020600091509050806000018054610445906108d7565b80601f0160208091040260200160405190810160405280929190818152602001828054610471906108d7565b80156104be5780601f10610493576101008083540402835291602001916104be565b820191906000526020600020905b8154815290600101906020018083116104a157829003601f168201915b5050505050908060010160009054906101000a900473ffffffffffffffffffffffffffffffffffffffff16908060010160149054906101000a900460ff16905083565b6000604051905090565b600080fd5b600080fd5b600073ffffffffffffffffffffffffffffffffffffffff82169050919050565b600061054082610515565b9050919050565b61055081610535565b811461055b57600080fd5b50565b60008135905061056d81610547565b92915050565b6000602082840312156105895761058861050b565b5b60006105978482850161055e565b91505092915050565b600080fd5b600080fd5b6000601f19601f8301169050919050565b7f4e487b7100000000000000000000000000000000000000000000000000000000600052604160045260246000fd5b6105f3826105aa565b810181811067ffffffffffffffff82111715610612576106116105bb565b5b80604052505050565b6000610625610501565b905061063182826105ea565b919050565b600067ffffffffffffffff821115610651576106506105bb565b5b61065a826105aa565b9050602081019050919050565b82818337600083830152505050565b600061068961068484610636565b61061b565b9050828152602081018484840111156106a5576106a46105a5565b5b6106b0848285610667565b509392505050565b600082601f8301126106cd576106cc6105a0565b5b81356106dd848260208601610676565b91505092915050565b6000602082840312156106fc576106fb61050b565b5b600082013567ffffffffffffffff81111561071a57610719610510565b5b610726848285016106b8565b91505092915050565b600081519050919050565b600082825260208201905092915050565b60005b8381101561076957808201518184015260208101905061074e565b60008484015250505050565b60006107808261072f565b61078a818561073a565b935061079a81856020860161074b565b6107a3816105aa565b840191505092915050565b6107b781610535565b82525050565b60008115159050919050565b6107d2816107bd565b82525050565b600060608201905081810360008301526107f28186610775565b905061080160208301856107ae565b61080e60408301846107c9565b949350505050565b7f566572696669636174696f6e2063616e206f6e6c7920626520706572666f726d60008201527f65642062792074686520757365722e0000000000000000000000000000000000602082015250565b6000610872602f8361073a565b915061087d82610816565b604082019050919050565b600060208201905081810360008301526108a181610865565b9050919050565b7f4e487b7100000000000000000000000000000000000000000000000000000000600052602260045260246000fd5b600060028204905060018216806108ef57607f821691505b602082108103610902576109016108a8565b5b50919050565b60008190508160005260206000209050919050565b6000815461092a816108d7565b610934818661073a565b9450600182166000811461094f576001811461096557610998565b60ff198316865281151560200286019350610998565b61096e85610908565b60005b8381101561099057815481890152600182019150602081019050610971565b808801955050505b50505092915050565b600060408201905081810360008301526109bb818561091d565b90506109ca60208301846107c9565b9392505050565b7f5573657220616c72656164792072656769737465726564000000000000000000600082015250565b6000610a0760178361073a565b9150610a12826109d1565b602082019050919050565b60006020820190508181036000830152610a36816109fa565b9050919050565b60006020601f8301049050919050565b600082821b905092915050565b600060088302610a8a7fffffffffffffffffffffffffffffffffffffffffffffffffffffffffffffffff82610a4d565b610a948683610a4d565b95508019841693508086168417925050509392505050565b6000819050919050565b6000819050919050565b6000610adb610ad6610ad184610aac565b610ab6565b610aac565b9050919050565b6000819050919050565b610af583610ac0565b610b09610b0182610ae2565b848454610a5a565b825550505050565b600090565b610b1e610b11565b610b29818484610aec565b505050565b5b81811015610b4d57610b42600082610b16565b600181019050610b2f565b5050565b601f821115610b9257610b6381610908565b610b6c84610a3d565b81016020851015610b7b578190505b610b8f610b8785610a3d565b830182610b2e565b50505b505050565b600082821c905092915050565b6000610bb560001984600802610b97565b1980831691505092915050565b6000610bce8383610ba4565b9150826002028217905092915050565b610be78261072f565b67ffffffffffffffff811115610c0057610bff6105bb565b5b610c0a82546108d7565b610c15828285610b51565b600060209050601f831160018114610c485760008415610c36578287015190505b610c408582610bc2565b865550610ca8565b601f198416610c5686610908565b60005b82811015610c7e57848901518255600182019150602085019450602081019050610c59565b86831015610c9b5784890151610c97601f891682610ba4565b8355505b6001600288020188555050505b505050505050565b60006040820190508181036000830152610cca8185610775565b9050610cd960208301846107c9565b939250505056fea2646970667358221220a1cdb5bacf32132503d4fe2be1f8870521d023b1d47c86ef2ece6f22cc44876d64736f6c63430008180033",
    "linkReferences": {},
    "deployedLinkReferences": {}
}