{
  "abi": [
    {
      "anonymous": false,
      "inputs": [
        {
          "indexed": true,
          "internalType": "address",
          "name": "user",
          "type": "address"
        },
        {
          "indexed": false,
          "internalType": "string",
          "name": "name",
          "type": "string"
        },
        {
          "indexed": false,
          "internalType": "bool",
          "name": "isVerified",
          "type": "bool"
        }
      ],
      "name": "UserRegistered",
      "type": "event"
    },
    {
      "inputs": [],
      "name": "check",
      "outputs": [
        {
          "internalType": "string",
          "name": "",
          "type": "string"
        }
      ],
      "stateMutability": "pure",
      "type": "function"
    },
    {
      "inputs": [
        {
          "internalType": "string",
          "name": "_name",
          "type": "string"
        }
      ],
      "name": "registerUser",
      "outputs": [],
      "stateMutability": "nonpayable",
      "type": "function"
    },
    {
      "inputs": [
        {
          "internalType": "address",
          "name": "",
          "type": "address"
        }
      ],
      "name": "users",
      "outputs": [
        {
          "internalType": "string",
          "name": "name",
          "type": "string"
        },
        {
          "internalType": "address",
          "name": "walletAddress",
          "type": "address"
        },
        {
          "internalType": "bool",
          "name": "isVerified",
          "type": "bool"
        }
      ],
      "stateMutability": "view",
      "type": "function"
    },
    {
      "inputs": [
        {
          "internalType": "address",
          "name": "_userAddress",
          "type": "address"
        }
      ],
      "name": "verifyUser",
      "outputs": [],
      "stateMutability": "nonpayable",
      "type": "function"
    }
  ],
  "devdoc": {
    "kind": "dev",
    "methods": {},
    "version": 1
  },
  "evm": {
    "assembly": "    /* \"UserRegistration.sol\":64:1122  contract UserRegistration {... */\n  mstore(0x40, 0x80)\n  callvalue\n  dup1\n  iszero\n  tag_1\n  jumpi\n  0x00\n  dup1\n  revert\ntag_1:\n  pop\n  dataSize(sub_0)\n  dup1\n  dataOffset(sub_0)\n  0x00\n  codecopy\n  0x00\n  return\nstop\n\nsub_0: assembly {\n        /* \"UserRegistration.sol\":64:1122  contract UserRegistration {... */\n      mstore(0x40, 0x80)\n      callvalue\n      dup1\n      iszero\n      tag_1\n      jumpi\n      0x00\n      dup1\n      revert\n    tag_1:\n      pop\n      jumpi(tag_2, lt(calldatasize, 0x04))\n      shr(0xe0, calldataload(0x00))\n      dup1\n      0x4d813120\n      eq\n      tag_3\n      jumpi\n      dup1\n      0x704f1b94\n      eq\n      tag_4\n      jumpi\n      dup1\n      0x919840ad\n      eq\n      tag_5\n      jumpi\n      dup1\n      0xa87430ba\n      eq\n      tag_6\n      jumpi\n    tag_2:\n      0x00\n      dup1\n      revert\n        /* \"UserRegistration.sol\":846:1120  function verifyUser(address _userAddress) public {... */\n    tag_3:\n      tag_7\n      0x04\n      dup1\n      calldatasize\n      sub\n      dup2\n      add\n      swap1\n      tag_8\n      swap2\n      swap1\n      tag_9\n      jump\t// in\n    tag_8:\n      tag_10\n      jump\t// in\n    tag_7:\n      stop\n        /* \"UserRegistration.sol\":567:840  function registerUser(string memory _name) public onlyNewUser {... */\n    tag_4:\n      tag_11\n      0x04\n      dup1\n      calldatasize\n      sub\n      dup2\n      add\n      swap1\n      tag_12\n      swap2\n      swap1\n      tag_13\n      jump\t// in\n    tag_12:\n      tag_14\n      jump\t// in\n    tag_11:\n      stop\n        /* \"UserRegistration.sol\":473:561  function check() public pure returns(string memory) {... */\n    tag_5:\n      tag_15\n      tag_16\n      jump\t// in\n    tag_15:\n      mload(0x40)\n      tag_17\n      swap2\n      swap1\n      tag_18\n      jump\t// in\n    tag_17:\n      mload(0x40)\n      dup1\n      swap2\n      sub\n      swap1\n      return\n        /* \"UserRegistration.sol\":205:249  mapping(address => UserProfile) public users */\n    tag_6:\n      tag_19\n      0x04\n      dup1\n      calldatasize\n      sub\n      dup2\n      add\n      swap1\n      tag_20\n      swap2\n      swap1\n      tag_9\n      jump\t// in\n    tag_20:\n      tag_21\n      jump\t// in\n    tag_19:\n      mload(0x40)\n      tag_22\n      swap4\n      swap3\n      swap2\n      swap1\n      tag_23\n      jump\t// in\n    tag_22:\n      mload(0x40)\n      dup1\n      swap2\n      sub\n      swap1\n      return\n        /* \"UserRegistration.sol\":846:1120  function verifyUser(address _userAddress) public {... */\n    tag_10:\n        /* \"UserRegistration.sol\":927:939  _userAddress */\n      dup1\n        /* \"UserRegistration.sol\":913:939  msg.sender == _userAddress */\n      0xffffffffffffffffffffffffffffffffffffffff\n      and\n        /* \"UserRegistration.sol\":913:923  msg.sender */\n      caller\n        /* \"UserRegistration.sol\":913:939  msg.sender == _userAddress */\n      0xffffffffffffffffffffffffffffffffffffffff\n      and\n      eq\n        /* \"UserRegistration.sol\":905:991  require(msg.sender == _userAddress, \"Verification can only be performed by the user.\") */\n      tag_25\n      jumpi\n      mload(0x40)\n      0x08c379a000000000000000000000000000000000000000000000000000000000\n      dup2\n      mstore\n      0x04\n      add\n      tag_26\n      swap1\n      tag_27\n      jump\t// in\n    tag_26:\n      mload(0x40)\n      dup1\n      swap2\n      sub\n      swap1\n      revert\n    tag_25:\n        /* \"UserRegistration.sol\":1034:1038  true */\n      0x01\n        /* \"UserRegistration.sol\":1001:1006  users */\n      0x00\n        /* \"UserRegistration.sol\":1001:1020  users[_userAddress] */\n      dup1\n        /* \"UserRegistration.sol\":1007:1019  _userAddress */\n      dup4\n        /* \"UserRegistration.sol\":1001:1020  users[_userAddress] */\n      0xffffffffffffffffffffffffffffffffffffffff\n      and\n      0xffffffffffffffffffffffffffffffffffffffff\n      and\n      dup2\n      mstore\n      0x20\n      add\n      swap1\n      dup2\n      mstore\n      0x20\n      add\n      0x00\n      keccak256\n        /* \"UserRegistration.sol\":1001:1031  users[_userAddress].isVerified */\n      0x01\n      add\n      0x14\n        /* \"UserRegistration.sol\":1001:1038  users[_userAddress].isVerified = true */\n      0x0100\n      exp\n      dup2\n      sload\n      dup2\n      0xff\n      mul\n      not\n      and\n      swap1\n      dup4\n      iszero\n      iszero\n      mul\n      or\n      swap1\n      sstore\n      pop\n        /* \"UserRegistration.sol\":1068:1080  _userAddress */\n      dup1\n        /* \"UserRegistration.sol\":1053:1113  UserRegistered(_userAddress, users[_userAddress].name, true) */\n      0xffffffffffffffffffffffffffffffffffffffff\n      and\n      0x0b2d2fe99b0620e0994de6f522eb19dcc5b5fd39b27be67cea0547c4ed9dbdfc\n        /* \"UserRegistration.sol\":1082:1087  users */\n      0x00\n        /* \"UserRegistration.sol\":1082:1101  users[_userAddress] */\n      dup1\n        /* \"UserRegistration.sol\":1088:1100  _userAddress */\n      dup5\n        /* \"UserRegistration.sol\":1082:1101  users[_userAddress] */\n      0xffffffffffffffffffffffffffffffffffffffff\n      and\n      0xffffffffffffffffffffffffffffffffffffffff\n      and\n      dup2\n      mstore\n      0x20\n      add\n      swap1\n      dup2\n      mstore\n      0x20\n      add\n      0x00\n      keccak256\n        /* \"UserRegistration.sol\":1082:1106  users[_userAddress].name */\n      0x00\n      add\n        /* \"UserRegistration.sol\":1108:1112  true */\n      0x01\n        /* \"UserRegistration.sol\":1053:1113  UserRegistered(_userAddress, users[_userAddress].name, true) */\n      mload(0x40)\n      tag_28\n      swap3\n      swap2\n      swap1\n      tag_29\n      jump\t// in\n    tag_28:\n      mload(0x40)\n      dup1\n      swap2\n      sub\n      swap1\n      log2\n        /* \"UserRegistration.sol\":846:1120  function verifyUser(address _userAddress) public {... */\n      pop\n      jump\t// out\n        /* \"UserRegistration.sol\":567:840  function registerUser(string memory _name) public onlyNewUser {... */\n    tag_14:\n        /* \"UserRegistration.sol\":419:420  0 */\n      0x00\n        /* \"UserRegistration.sol\":376:421  users[msg.sender].walletAddress == address(0) */\n      0xffffffffffffffffffffffffffffffffffffffff\n      and\n        /* \"UserRegistration.sol\":376:381  users */\n      0x00\n        /* \"UserRegistration.sol\":376:393  users[msg.sender] */\n      dup1\n        /* \"UserRegistration.sol\":382:392  msg.sender */\n      caller\n        /* \"UserRegistration.sol\":376:393  users[msg.sender] */\n      0xffffffffffffffffffffffffffffffffffffffff\n      and\n      0xffffffffffffffffffffffffffffffffffffffff\n      and\n      dup2\n      mstore\n      0x20\n      add\n      swap1\n      dup2\n      mstore\n      0x20\n      add\n      0x00\n      keccak256\n        /* \"UserRegistration.sol\":376:407  users[msg.sender].walletAddress */\n      0x01\n      add\n      0x00\n      swap1\n      sload\n      swap1\n      0x0100\n      exp\n      swap1\n      div\n      0xffffffffffffffffffffffffffffffffffffffff\n      and\n        /* \"UserRegistration.sol\":376:421  users[msg.sender].walletAddress == address(0) */\n      0xffffffffffffffffffffffffffffffffffffffff\n      and\n      eq\n        /* \"UserRegistration.sol\":368:449  require(users[msg.sender].walletAddress == address(0), \"User already registered\") */\n      tag_31\n      jumpi\n      mload(0x40)\n      0x08c379a000000000000000000000000000000000000000000000000000000000\n      dup2\n      mstore\n      0x04\n      add\n      tag_32\n      swap1\n      tag_33\n      jump\t// in\n    tag_32:\n      mload(0x40)\n      dup1\n      swap2\n      sub\n      swap1\n      revert\n    tag_31:\n        /* \"UserRegistration.sol\":659:777  UserProfile({... */\n      mload(0x40)\n      dup1\n      0x60\n      add\n      0x40\n      mstore\n      dup1\n        /* \"UserRegistration.sol\":691:696  _name */\n      dup3\n        /* \"UserRegistration.sol\":659:777  UserProfile({... */\n      dup2\n      mstore\n      0x20\n      add\n        /* \"UserRegistration.sol\":725:735  msg.sender */\n      caller\n        /* \"UserRegistration.sol\":659:777  UserProfile({... */\n      0xffffffffffffffffffffffffffffffffffffffff\n      and\n      dup2\n      mstore\n      0x20\n      add\n        /* \"UserRegistration.sol\":761:766  false */\n      0x00\n        /* \"UserRegistration.sol\":659:777  UserProfile({... */\n      iszero\n      iszero\n      dup2\n      mstore\n      pop\n        /* \"UserRegistration.sol\":639:644  users */\n      0x00\n        /* \"UserRegistration.sol\":639:656  users[msg.sender] */\n      dup1\n        /* \"UserRegistration.sol\":645:655  msg.sender */\n      caller\n        /* \"UserRegistration.sol\":639:656  users[msg.sender] */\n      0xffffffffffffffffffffffffffffffffffffffff\n      and\n      0xffffffffffffffffffffffffffffffffffffffff\n      and\n      dup2\n      mstore\n      0x20\n      add\n      swap1\n      dup2\n      mstore\n      0x20\n      add\n      0x00\n      keccak256\n        /* \"UserRegistration.sol\":639:777  users[msg.sender] = UserProfile({... */\n      0x00\n      dup3\n      add\n      mload\n      dup2\n      0x00\n      add\n      swap1\n      dup1\n      mload\n      swap1\n      0x20\n      add\n      swap1\n      tag_35\n      swap3\n      swap2\n      swap1\n      tag_36\n      jump\t// in\n    tag_35:\n      pop\n      0x20\n      dup3\n      add\n      mload\n      dup2\n      0x01\n      add\n      exp(0x0100, 0x00)\n      dup2\n      sload\n      dup2\n      0xffffffffffffffffffffffffffffffffffffffff\n      mul\n      not\n      and\n      swap1\n      dup4\n      0xffffffffffffffffffffffffffffffffffffffff\n      and\n      mul\n      or\n      swap1\n      sstore\n      pop\n      0x40\n      dup3\n      add\n      mload\n      dup2\n      0x01\n      add\n      exp(0x0100, 0x14)\n      dup2\n      sload\n      dup2\n      0xff\n      mul\n      not\n      and\n      swap1\n      dup4\n      iszero\n      iszero\n      mul\n      or\n      swap1\n      sstore\n      pop\n      swap1\n      pop\n      pop\n        /* \"UserRegistration.sol\":808:818  msg.sender */\n      caller\n        /* \"UserRegistration.sol\":793:833  UserRegistered(msg.sender, _name, false) */\n      0xffffffffffffffffffffffffffffffffffffffff\n      and\n      0x0b2d2fe99b0620e0994de6f522eb19dcc5b5fd39b27be67cea0547c4ed9dbdfc\n        /* \"UserRegistration.sol\":820:825  _name */\n      dup3\n        /* \"UserRegistration.sol\":827:832  false */\n      0x00\n        /* \"UserRegistration.sol\":793:833  UserRegistered(msg.sender, _name, false) */\n      mload(0x40)\n      tag_37\n      swap3\n      swap2\n      swap1\n      tag_38\n      jump\t// in\n    tag_37:\n      mload(0x40)\n      dup1\n      swap2\n      sub\n      swap1\n      log2\n        /* \"UserRegistration.sol\":567:840  function registerUser(string memory _name) public onlyNewUser {... */\n      pop\n      jump\t// out\n        /* \"UserRegistration.sol\":473:561  function check() public pure returns(string memory) {... */\n    tag_16:\n        /* \"UserRegistration.sol\":510:523  string memory */\n      0x60\n        /* \"UserRegistration.sol\":535:554  return \"Hello Prem\" */\n      mload(0x40)\n      dup1\n      0x40\n      add\n      0x40\n      mstore\n      dup1\n      0x0a\n      dup2\n      mstore\n      0x20\n      add\n      0x48656c6c6f205072656d00000000000000000000000000000000000000000000\n      dup2\n      mstore\n      pop\n      swap1\n      pop\n        /* \"UserRegistration.sol\":473:561  function check() public pure returns(string memory) {... */\n      swap1\n      jump\t// out\n        /* \"UserRegistration.sol\":205:249  mapping(address => UserProfile) public users */\n    tag_21:\n      mstore(0x20, 0x00)\n      dup1\n      0x00\n      mstore\n      keccak256(0x00, 0x40)\n      0x00\n      swap2\n      pop\n      swap1\n      pop\n      dup1\n      0x00\n      add\n      dup1\n      sload\n      tag_40\n      swap1\n      tag_41\n      jump\t// in\n    tag_40:\n      dup1\n      0x1f\n      add\n      0x20\n      dup1\n      swap2\n      div\n      mul\n      0x20\n      add\n      mload(0x40)\n      swap1\n      dup2\n      add\n      0x40\n      mstore\n      dup1\n      swap3\n      swap2\n      swap1\n      dup2\n      dup2\n      mstore\n      0x20\n      add\n      dup3\n      dup1\n      sload\n      tag_42\n      swap1\n      tag_41\n      jump\t// in\n    tag_42:\n      dup1\n      iszero\n      tag_43\n      jumpi\n      dup1\n      0x1f\n      lt\n      tag_44\n      jumpi\n      0x0100\n      dup1\n      dup4\n      sload\n      div\n      mul\n      dup4\n      mstore\n      swap2\n      0x20\n      add\n      swap2\n      jump(tag_43)\n    tag_44:\n      dup3\n      add\n      swap2\n      swap1\n      0x00\n      mstore\n      keccak256(0x00, 0x20)\n      swap1\n    tag_45:\n      dup2\n      sload\n      dup2\n      mstore\n      swap1\n      0x01\n      add\n      swap1\n      0x20\n      add\n      dup1\n      dup4\n      gt\n      tag_45\n      jumpi\n      dup3\n      swap1\n      sub\n      0x1f\n      and\n      dup3\n      add\n      swap2\n    tag_43:\n      pop\n      pop\n      pop\n      pop\n      pop\n      swap1\n      dup1\n      0x01\n      add\n      0x00\n      swap1\n      sload\n      swap1\n      0x0100\n      exp\n      swap1\n      div\n      0xffffffffffffffffffffffffffffffffffffffff\n      and\n      swap1\n      dup1\n      0x01\n      add\n      0x14\n      swap1\n      sload\n      swap1\n      0x0100\n      exp\n      swap1\n      div\n      0xff\n      and\n      swap1\n      pop\n      dup4\n      jump\t// out\n    tag_36:\n      dup3\n      dup1\n      sload\n      tag_46\n      swap1\n      tag_41\n      jump\t// in\n    tag_46:\n      swap1\n      0x00\n      mstore\n      keccak256(0x00, 0x20)\n      swap1\n      0x1f\n      add\n      0x20\n      swap1\n      div\n      dup2\n      add\n      swap3\n      dup3\n      tag_48\n      jumpi\n      0x00\n      dup6\n      sstore\n      jump(tag_47)\n    tag_48:\n      dup3\n      0x1f\n      lt\n      tag_49\n      jumpi\n      dup1\n      mload\n      not(0xff)\n      and\n      dup4\n      dup1\n      add\n      or\n      dup6\n      sstore\n      jump(tag_47)\n    tag_49:\n      dup3\n      dup1\n      add\n      0x01\n      add\n      dup6\n      sstore\n      dup3\n      iszero\n      tag_47\n      jumpi\n      swap2\n      dup3\n      add\n    tag_50:\n      dup3\n      dup2\n      gt\n      iszero\n      tag_51\n      jumpi\n      dup3\n      mload\n      dup3\n      sstore\n      swap2\n      0x20\n      add\n      swap2\n      swap1\n      0x01\n      add\n      swap1\n      jump(tag_50)\n    tag_51:\n    tag_47:\n      pop\n      swap1\n      pop\n      tag_52\n      swap2\n      swap1\n      tag_53\n      jump\t// in\n    tag_52:\n      pop\n      swap1\n      jump\t// out\n    tag_53:\n    tag_54:\n      dup1\n      dup3\n      gt\n      iszero\n      tag_55\n      jumpi\n      0x00\n      dup2\n      0x00\n      swap1\n      sstore\n      pop\n      0x01\n      add\n      jump(tag_54)\n    tag_55:\n      pop\n      swap1\n      jump\t// out\n        /* \"#utility.yul\":7:82   */\n    tag_56:\n        /* \"#utility.yul\":40:46   */\n      0x00\n        /* \"#utility.yul\":73:75   */\n      0x40\n        /* \"#utility.yul\":67:76   */\n      mload\n        /* \"#utility.yul\":57:76   */\n      swap1\n      pop\n        /* \"#utility.yul\":7:82   */\n      swap1\n      jump\t// out\n        /* \"#utility.yul\":88:205   */\n    tag_57:\n        /* \"#utility.yul\":197:198   */\n      0x00\n        /* \"#utility.yul\":194:195   */\n      dup1\n        /* \"#utility.yul\":187:199   */\n      revert\n        /* \"#utility.yul\":211:328   */\n    tag_58:\n        /* \"#utility.yul\":320:321   */\n      0x00\n        /* \"#utility.yul\":317:318   */\n      dup1\n        /* \"#utility.yul\":310:322   */\n      revert\n        /* \"#utility.yul\":334:460   */\n    tag_59:\n        /* \"#utility.yul\":371:378   */\n      0x00\n        /* \"#utility.yul\":411:453   */\n      0xffffffffffffffffffffffffffffffffffffffff\n        /* \"#utility.yul\":404:409   */\n      dup3\n        /* \"#utility.yul\":400:454   */\n      and\n        /* \"#utility.yul\":389:454   */\n      swap1\n      pop\n        /* \"#utility.yul\":334:460   */\n      swap2\n      swap1\n      pop\n      jump\t// out\n        /* \"#utility.yul\":466:562   */\n    tag_60:\n        /* \"#utility.yul\":503:510   */\n      0x00\n        /* \"#utility.yul\":532:556   */\n      tag_93\n        /* \"#utility.yul\":550:555   */\n      dup3\n        /* \"#utility.yul\":532:556   */\n      tag_59\n      jump\t// in\n    tag_93:\n        /* \"#utility.yul\":521:556   */\n      swap1\n      pop\n        /* \"#utility.yul\":466:562   */\n      swap2\n      swap1\n      pop\n      jump\t// out\n        /* \"#utility.yul\":568:690   */\n    tag_61:\n        /* \"#utility.yul\":641:665   */\n      tag_95\n        /* \"#utility.yul\":659:664   */\n      dup2\n        /* \"#utility.yul\":641:665   */\n      tag_60\n      jump\t// in\n    tag_95:\n        /* \"#utility.yul\":634:639   */\n      dup2\n        /* \"#utility.yul\":631:666   */\n      eq\n        /* \"#utility.yul\":621:684   */\n      tag_96\n      jumpi\n        /* \"#utility.yul\":680:681   */\n      0x00\n        /* \"#utility.yul\":677:678   */\n      dup1\n        /* \"#utility.yul\":670:682   */\n      revert\n        /* \"#utility.yul\":621:684   */\n    tag_96:\n        /* \"#utility.yul\":568:690   */\n      pop\n      jump\t// out\n        /* \"#utility.yul\":696:835   */\n    tag_62:\n        /* \"#utility.yul\":742:747   */\n      0x00\n        /* \"#utility.yul\":780:786   */\n      dup2\n        /* \"#utility.yul\":767:787   */\n      calldataload\n        /* \"#utility.yul\":758:787   */\n      swap1\n      pop\n        /* \"#utility.yul\":796:829   */\n      tag_98\n        /* \"#utility.yul\":823:828   */\n      dup2\n        /* \"#utility.yul\":796:829   */\n      tag_61\n      jump\t// in\n    tag_98:\n        /* \"#utility.yul\":696:835   */\n      swap3\n      swap2\n      pop\n      pop\n      jump\t// out\n        /* \"#utility.yul\":841:1170   */\n    tag_9:\n        /* \"#utility.yul\":900:906   */\n      0x00\n        /* \"#utility.yul\":949:951   */\n      0x20\n        /* \"#utility.yul\":937:946   */\n      dup3\n        /* \"#utility.yul\":928:935   */\n      dup5\n        /* \"#utility.yul\":924:947   */\n      sub\n        /* \"#utility.yul\":920:952   */\n      slt\n        /* \"#utility.yul\":917:1036   */\n      iszero\n      tag_100\n      jumpi\n        /* \"#utility.yul\":955:1034   */\n      tag_101\n      tag_57\n      jump\t// in\n    tag_101:\n        /* \"#utility.yul\":917:1036   */\n    tag_100:\n        /* \"#utility.yul\":1075:1076   */\n      0x00\n        /* \"#utility.yul\":1100:1153   */\n      tag_102\n        /* \"#utility.yul\":1145:1152   */\n      dup5\n        /* \"#utility.yul\":1136:1142   */\n      dup3\n        /* \"#utility.yul\":1125:1134   */\n      dup6\n        /* \"#utility.yul\":1121:1143   */\n      add\n        /* \"#utility.yul\":1100:1153   */\n      tag_62\n      jump\t// in\n    tag_102:\n        /* \"#utility.yul\":1090:1153   */\n      swap2\n      pop\n        /* \"#utility.yul\":1046:1163   */\n      pop\n        /* \"#utility.yul\":841:1170   */\n      swap3\n      swap2\n      pop\n      pop\n      jump\t// out\n        /* \"#utility.yul\":1176:1293   */\n    tag_63:\n        /* \"#utility.yul\":1285:1286   */\n      0x00\n        /* \"#utility.yul\":1282:1283   */\n      dup1\n        /* \"#utility.yul\":1275:1287   */\n      revert\n        /* \"#utility.yul\":1299:1416   */\n    tag_64:\n        /* \"#utility.yul\":1408:1409   */\n      0x00\n        /* \"#utility.yul\":1405:1406   */\n      dup1\n        /* \"#utility.yul\":1398:1410   */\n      revert\n        /* \"#utility.yul\":1422:1524   */\n    tag_65:\n        /* \"#utility.yul\":1463:1469   */\n      0x00\n        /* \"#utility.yul\":1514:1516   */\n      0x1f\n        /* \"#utility.yul\":1510:1517   */\n      not\n        /* \"#utility.yul\":1505:1507   */\n      0x1f\n        /* \"#utility.yul\":1498:1503   */\n      dup4\n        /* \"#utility.yul\":1494:1508   */\n      add\n        /* \"#utility.yul\":1490:1518   */\n      and\n        /* \"#utility.yul\":1480:1518   */\n      swap1\n      pop\n        /* \"#utility.yul\":1422:1524   */\n      swap2\n      swap1\n      pop\n      jump\t// out\n        /* \"#utility.yul\":1530:1710   */\n    tag_66:\n        /* \"#utility.yul\":1578:1655   */\n      0x4e487b7100000000000000000000000000000000000000000000000000000000\n        /* \"#utility.yul\":1575:1576   */\n      0x00\n        /* \"#utility.yul\":1568:1656   */\n      mstore\n        /* \"#utility.yul\":1675:1679   */\n      0x41\n        /* \"#utility.yul\":1672:1673   */\n      0x04\n        /* \"#utility.yul\":1665:1680   */\n      mstore\n        /* \"#utility.yul\":1699:1703   */\n      0x24\n        /* \"#utility.yul\":1696:1697   */\n      0x00\n        /* \"#utility.yul\":1689:1704   */\n      revert\n        /* \"#utility.yul\":1716:1997   */\n    tag_67:\n        /* \"#utility.yul\":1799:1826   */\n      tag_108\n        /* \"#utility.yul\":1821:1825   */\n      dup3\n        /* \"#utility.yul\":1799:1826   */\n      tag_65\n      jump\t// in\n    tag_108:\n        /* \"#utility.yul\":1791:1797   */\n      dup2\n        /* \"#utility.yul\":1787:1827   */\n      add\n        /* \"#utility.yul\":1929:1935   */\n      dup2\n        /* \"#utility.yul\":1917:1927   */\n      dup2\n        /* \"#utility.yul\":1914:1936   */\n      lt\n        /* \"#utility.yul\":1893:1911   */\n      0xffffffffffffffff\n        /* \"#utility.yul\":1881:1891   */\n      dup3\n        /* \"#utility.yul\":1878:1912   */\n      gt\n        /* \"#utility.yul\":1875:1937   */\n      or\n        /* \"#utility.yul\":1872:1960   */\n      iszero\n      tag_109\n      jumpi\n        /* \"#utility.yul\":1940:1958   */\n      tag_110\n      tag_66\n      jump\t// in\n    tag_110:\n        /* \"#utility.yul\":1872:1960   */\n    tag_109:\n        /* \"#utility.yul\":1980:1990   */\n      dup1\n        /* \"#utility.yul\":1976:1978   */\n      0x40\n        /* \"#utility.yul\":1969:1991   */\n      mstore\n        /* \"#utility.yul\":1759:1997   */\n      pop\n        /* \"#utility.yul\":1716:1997   */\n      pop\n      pop\n      jump\t// out\n        /* \"#utility.yul\":2003:2132   */\n    tag_68:\n        /* \"#utility.yul\":2037:2043   */\n      0x00\n        /* \"#utility.yul\":2064:2084   */\n      tag_112\n      tag_56\n      jump\t// in\n    tag_112:\n        /* \"#utility.yul\":2054:2084   */\n      swap1\n      pop\n        /* \"#utility.yul\":2093:2126   */\n      tag_113\n        /* \"#utility.yul\":2121:2125   */\n      dup3\n        /* \"#utility.yul\":2113:2119   */\n      dup3\n        /* \"#utility.yul\":2093:2126   */\n      tag_67\n      jump\t// in\n    tag_113:\n        /* \"#utility.yul\":2003:2132   */\n      swap2\n      swap1\n      pop\n      jump\t// out\n        /* \"#utility.yul\":2138:2446   */\n    tag_69:\n        /* \"#utility.yul\":2200:2204   */\n      0x00\n        /* \"#utility.yul\":2290:2308   */\n      0xffffffffffffffff\n        /* \"#utility.yul\":2282:2288   */\n      dup3\n        /* \"#utility.yul\":2279:2309   */\n      gt\n        /* \"#utility.yul\":2276:2332   */\n      iszero\n      tag_115\n      jumpi\n        /* \"#utility.yul\":2312:2330   */\n      tag_116\n      tag_66\n      jump\t// in\n    tag_116:\n        /* \"#utility.yul\":2276:2332   */\n    tag_115:\n        /* \"#utility.yul\":2350:2379   */\n      tag_117\n        /* \"#utility.yul\":2372:2378   */\n      dup3\n        /* \"#utility.yul\":2350:2379   */\n      tag_65\n      jump\t// in\n    tag_117:\n        /* \"#utility.yul\":2342:2379   */\n      swap1\n      pop\n        /* \"#utility.yul\":2434:2438   */\n      0x20\n        /* \"#utility.yul\":2428:2432   */\n      dup2\n        /* \"#utility.yul\":2424:2439   */\n      add\n        /* \"#utility.yul\":2416:2439   */\n      swap1\n      pop\n        /* \"#utility.yul\":2138:2446   */\n      swap2\n      swap1\n      pop\n      jump\t// out\n        /* \"#utility.yul\":2452:2606   */\n    tag_70:\n        /* \"#utility.yul\":2536:2542   */\n      dup3\n        /* \"#utility.yul\":2531:2534   */\n      dup2\n        /* \"#utility.yul\":2526:2529   */\n      dup4\n        /* \"#utility.yul\":2513:2543   */\n      calldatacopy\n        /* \"#utility.yul\":2598:2599   */\n      0x00\n        /* \"#utility.yul\":2589:2595   */\n      dup4\n        /* \"#utility.yul\":2584:2587   */\n      dup4\n        /* \"#utility.yul\":2580:2596   */\n      add\n        /* \"#utility.yul\":2573:2600   */\n      mstore\n        /* \"#utility.yul\":2452:2606   */\n      pop\n      pop\n      pop\n      jump\t// out\n        /* \"#utility.yul\":2612:3024   */\n    tag_71:\n        /* \"#utility.yul\":2690:2695   */\n      0x00\n        /* \"#utility.yul\":2715:2781   */\n      tag_120\n        /* \"#utility.yul\":2731:2780   */\n      tag_121\n        /* \"#utility.yul\":2773:2779   */\n      dup5\n        /* \"#utility.yul\":2731:2780   */\n      tag_69\n      jump\t// in\n    tag_121:\n        /* \"#utility.yul\":2715:2781   */\n      tag_68\n      jump\t// in\n    tag_120:\n        /* \"#utility.yul\":2706:2781   */\n      swap1\n      pop\n        /* \"#utility.yul\":2804:2810   */\n      dup3\n        /* \"#utility.yul\":2797:2802   */\n      dup2\n        /* \"#utility.yul\":2790:2811   */\n      mstore\n        /* \"#utility.yul\":2842:2846   */\n      0x20\n        /* \"#utility.yul\":2835:2840   */\n      dup2\n        /* \"#utility.yul\":2831:2847   */\n      add\n        /* \"#utility.yul\":2880:2883   */\n      dup5\n        /* \"#utility.yul\":2871:2877   */\n      dup5\n        /* \"#utility.yul\":2866:2869   */\n      dup5\n        /* \"#utility.yul\":2862:2878   */\n      add\n        /* \"#utility.yul\":2859:2884   */\n      gt\n        /* \"#utility.yul\":2856:2968   */\n      iszero\n      tag_122\n      jumpi\n        /* \"#utility.yul\":2887:2966   */\n      tag_123\n      tag_64\n      jump\t// in\n    tag_123:\n        /* \"#utility.yul\":2856:2968   */\n    tag_122:\n        /* \"#utility.yul\":2977:3018   */\n      tag_124\n        /* \"#utility.yul\":3011:3017   */\n      dup5\n        /* \"#utility.yul\":3006:3009   */\n      dup3\n        /* \"#utility.yul\":3001:3004   */\n      dup6\n        /* \"#utility.yul\":2977:3018   */\n      tag_70\n      jump\t// in\n    tag_124:\n        /* \"#utility.yul\":2696:3024   */\n      pop\n        /* \"#utility.yul\":2612:3024   */\n      swap4\n      swap3\n      pop\n      pop\n      pop\n      jump\t// out\n        /* \"#utility.yul\":3044:3384   */\n    tag_72:\n        /* \"#utility.yul\":3100:3105   */\n      0x00\n        /* \"#utility.yul\":3149:3152   */\n      dup3\n        /* \"#utility.yul\":3142:3146   */\n      0x1f\n        /* \"#utility.yul\":3134:3140   */\n      dup4\n        /* \"#utility.yul\":3130:3147   */\n      add\n        /* \"#utility.yul\":3126:3153   */\n      slt\n        /* \"#utility.yul\":3116:3238   */\n      tag_126\n      jumpi\n        /* \"#utility.yul\":3157:3236   */\n      tag_127\n      tag_63\n      jump\t// in\n    tag_127:\n        /* \"#utility.yul\":3116:3238   */\n    tag_126:\n        /* \"#utility.yul\":3274:3280   */\n      dup2\n        /* \"#utility.yul\":3261:3281   */\n      calldataload\n        /* \"#utility.yul\":3299:3378   */\n      tag_128\n        /* \"#utility.yul\":3374:3377   */\n      dup5\n        /* \"#utility.yul\":3366:3372   */\n      dup3\n        /* \"#utility.yul\":3359:3363   */\n      0x20\n        /* \"#utility.yul\":3351:3357   */\n      dup7\n        /* \"#utility.yul\":3347:3364   */\n      add\n        /* \"#utility.yul\":3299:3378   */\n      tag_71\n      jump\t// in\n    tag_128:\n        /* \"#utility.yul\":3290:3378   */\n      swap2\n      pop\n        /* \"#utility.yul\":3106:3384   */\n      pop\n        /* \"#utility.yul\":3044:3384   */\n      swap3\n      swap2\n      pop\n      pop\n      jump\t// out\n        /* \"#utility.yul\":3390:3899   */\n    tag_13:\n        /* \"#utility.yul\":3459:3465   */\n      0x00\n        /* \"#utility.yul\":3508:3510   */\n      0x20\n        /* \"#utility.yul\":3496:3505   */\n      dup3\n        /* \"#utility.yul\":3487:3494   */\n      dup5\n        /* \"#utility.yul\":3483:3506   */\n      sub\n        /* \"#utility.yul\":3479:3511   */\n      slt\n        /* \"#utility.yul\":3476:3595   */\n      iszero\n      tag_130\n      jumpi\n        /* \"#utility.yul\":3514:3593   */\n      tag_131\n      tag_57\n      jump\t// in\n    tag_131:\n        /* \"#utility.yul\":3476:3595   */\n    tag_130:\n        /* \"#utility.yul\":3662:3663   */\n      0x00\n        /* \"#utility.yul\":3651:3660   */\n      dup3\n        /* \"#utility.yul\":3647:3664   */\n      add\n        /* \"#utility.yul\":3634:3665   */\n      calldataload\n        /* \"#utility.yul\":3692:3710   */\n      0xffffffffffffffff\n        /* \"#utility.yul\":3684:3690   */\n      dup2\n        /* \"#utility.yul\":3681:3711   */\n      gt\n        /* \"#utility.yul\":3678:3795   */\n      iszero\n      tag_132\n      jumpi\n        /* \"#utility.yul\":3714:3793   */\n      tag_133\n      tag_58\n      jump\t// in\n    tag_133:\n        /* \"#utility.yul\":3678:3795   */\n    tag_132:\n        /* \"#utility.yul\":3819:3882   */\n      tag_134\n        /* \"#utility.yul\":3874:3881   */\n      dup5\n        /* \"#utility.yul\":3865:3871   */\n      dup3\n        /* \"#utility.yul\":3854:3863   */\n      dup6\n        /* \"#utility.yul\":3850:3872   */\n      add\n        /* \"#utility.yul\":3819:3882   */\n      tag_72\n      jump\t// in\n    tag_134:\n        /* \"#utility.yul\":3809:3882   */\n      swap2\n      pop\n        /* \"#utility.yul\":3605:3892   */\n      pop\n        /* \"#utility.yul\":3390:3899   */\n      swap3\n      swap2\n      pop\n      pop\n      jump\t// out\n        /* \"#utility.yul\":3905:4004   */\n    tag_73:\n        /* \"#utility.yul\":3957:3963   */\n      0x00\n        /* \"#utility.yul\":3991:3996   */\n      dup2\n        /* \"#utility.yul\":3985:3997   */\n      mload\n        /* \"#utility.yul\":3975:3997   */\n      swap1\n      pop\n        /* \"#utility.yul\":3905:4004   */\n      swap2\n      swap1\n      pop\n      jump\t// out\n        /* \"#utility.yul\":4010:4179   */\n    tag_74:\n        /* \"#utility.yul\":4094:4105   */\n      0x00\n        /* \"#utility.yul\":4128:4134   */\n      dup3\n        /* \"#utility.yul\":4123:4126   */\n      dup3\n        /* \"#utility.yul\":4116:4135   */\n      mstore\n        /* \"#utility.yul\":4168:4172   */\n      0x20\n        /* \"#utility.yul\":4163:4166   */\n      dup3\n        /* \"#utility.yul\":4159:4173   */\n      add\n        /* \"#utility.yul\":4144:4173   */\n      swap1\n      pop\n        /* \"#utility.yul\":4010:4179   */\n      swap3\n      swap2\n      pop\n      pop\n      jump\t// out\n        /* \"#utility.yul\":4185:4492   */\n    tag_75:\n        /* \"#utility.yul\":4253:4254   */\n      0x00\n        /* \"#utility.yul\":4263:4376   */\n    tag_138:\n        /* \"#utility.yul\":4277:4283   */\n      dup4\n        /* \"#utility.yul\":4274:4275   */\n      dup2\n        /* \"#utility.yul\":4271:4284   */\n      lt\n        /* \"#utility.yul\":4263:4376   */\n      iszero\n      tag_140\n      jumpi\n        /* \"#utility.yul\":4362:4363   */\n      dup1\n        /* \"#utility.yul\":4357:4360   */\n      dup3\n        /* \"#utility.yul\":4353:4364   */\n      add\n        /* \"#utility.yul\":4347:4365   */\n      mload\n        /* \"#utility.yul\":4343:4344   */\n      dup2\n        /* \"#utility.yul\":4338:4341   */\n      dup5\n        /* \"#utility.yul\":4334:4345   */\n      add\n        /* \"#utility.yul\":4327:4366   */\n      mstore\n        /* \"#utility.yul\":4299:4301   */\n      0x20\n        /* \"#utility.yul\":4296:4297   */\n      dup2\n        /* \"#utility.yul\":4292:4302   */\n      add\n        /* \"#utility.yul\":4287:4302   */\n      swap1\n      pop\n        /* \"#utility.yul\":4263:4376   */\n      jump(tag_138)\n    tag_140:\n        /* \"#utility.yul\":4394:4400   */\n      dup4\n        /* \"#utility.yul\":4391:4392   */\n      dup2\n        /* \"#utility.yul\":4388:4401   */\n      gt\n        /* \"#utility.yul\":4385:4486   */\n      iszero\n      tag_141\n      jumpi\n        /* \"#utility.yul\":4474:4475   */\n      0x00\n        /* \"#utility.yul\":4465:4471   */\n      dup5\n        /* \"#utility.yul\":4460:4463   */\n      dup5\n        /* \"#utility.yul\":4456:4472   */\n      add\n        /* \"#utility.yul\":4449:4476   */\n      mstore\n        /* \"#utility.yul\":4385:4486   */\n    tag_141:\n        /* \"#utility.yul\":4234:4492   */\n      pop\n        /* \"#utility.yul\":4185:4492   */\n      pop\n      pop\n      pop\n      jump\t// out\n        /* \"#utility.yul\":4498:4862   */\n    tag_76:\n        /* \"#utility.yul\":4586:4589   */\n      0x00\n        /* \"#utility.yul\":4614:4653   */\n      tag_143\n        /* \"#utility.yul\":4647:4652   */\n      dup3\n        /* \"#utility.yul\":4614:4653   */\n      tag_73\n      jump\t// in\n    tag_143:\n        /* \"#utility.yul\":4669:4740   */\n      tag_144\n        /* \"#utility.yul\":4733:4739   */\n      dup2\n        /* \"#utility.yul\":4728:4731   */\n      dup6\n        /* \"#utility.yul\":4669:4740   */\n      tag_74\n      jump\t// in\n    tag_144:\n        /* \"#utility.yul\":4662:4740   */\n      swap4\n      pop\n        /* \"#utility.yul\":4749:4801   */\n      tag_145\n        /* \"#utility.yul\":4794:4800   */\n      dup2\n        /* \"#utility.yul\":4789:4792   */\n      dup6\n        /* \"#utility.yul\":4782:4786   */\n      0x20\n        /* \"#utility.yul\":4775:4780   */\n      dup7\n        /* \"#utility.yul\":4771:4787   */\n      add\n        /* \"#utility.yul\":4749:4801   */\n      tag_75\n      jump\t// in\n    tag_145:\n        /* \"#utility.yul\":4826:4855   */\n      tag_146\n        /* \"#utility.yul\":4848:4854   */\n      dup2\n        /* \"#utility.yul\":4826:4855   */\n      tag_65\n      jump\t// in\n    tag_146:\n        /* \"#utility.yul\":4821:4824   */\n      dup5\n        /* \"#utility.yul\":4817:4856   */\n      add\n        /* \"#utility.yul\":4810:4856   */\n      swap2\n      pop\n        /* \"#utility.yul\":4590:4862   */\n      pop\n        /* \"#utility.yul\":4498:4862   */\n      swap3\n      swap2\n      pop\n      pop\n      jump\t// out\n        /* \"#utility.yul\":4868:5181   */\n    tag_18:\n        /* \"#utility.yul\":4981:4985   */\n      0x00\n        /* \"#utility.yul\":5019:5021   */\n      0x20\n        /* \"#utility.yul\":5008:5017   */\n      dup3\n        /* \"#utility.yul\":5004:5022   */\n      add\n        /* \"#utility.yul\":4996:5022   */\n      swap1\n      pop\n        /* \"#utility.yul\":5068:5077   */\n      dup2\n        /* \"#utility.yul\":5062:5066   */\n      dup2\n        /* \"#utility.yul\":5058:5078   */\n      sub\n        /* \"#utility.yul\":5054:5055   */\n      0x00\n        /* \"#utility.yul\":5043:5052   */\n      dup4\n        /* \"#utility.yul\":5039:5056   */\n      add\n        /* \"#utility.yul\":5032:5079   */\n      mstore\n        /* \"#utility.yul\":5096:5174   */\n      tag_148\n        /* \"#utility.yul\":5169:5173   */\n      dup2\n        /* \"#utility.yul\":5160:5166   */\n      dup5\n        /* \"#utility.yul\":5096:5174   */\n      tag_76\n      jump\t// in\n    tag_148:\n        /* \"#utility.yul\":5088:5174   */\n      swap1\n      pop\n        /* \"#utility.yul\":4868:5181   */\n      swap3\n      swap2\n      pop\n      pop\n      jump\t// out\n        /* \"#utility.yul\":5187:5305   */\n    tag_77:\n        /* \"#utility.yul\":5274:5298   */\n      tag_150\n        /* \"#utility.yul\":5292:5297   */\n      dup2\n        /* \"#utility.yul\":5274:5298   */\n      tag_60\n      jump\t// in\n    tag_150:\n        /* \"#utility.yul\":5269:5272   */\n      dup3\n        /* \"#utility.yul\":5262:5299   */\n      mstore\n        /* \"#utility.yul\":5187:5305   */\n      pop\n      pop\n      jump\t// out\n        /* \"#utility.yul\":5311:5401   */\n    tag_78:\n        /* \"#utility.yul\":5345:5352   */\n      0x00\n        /* \"#utility.yul\":5388:5393   */\n      dup2\n        /* \"#utility.yul\":5381:5394   */\n      iszero\n        /* \"#utility.yul\":5374:5395   */\n      iszero\n        /* \"#utility.yul\":5363:5395   */\n      swap1\n      pop\n        /* \"#utility.yul\":5311:5401   */\n      swap2\n      swap1\n      pop\n      jump\t// out\n        /* \"#utility.yul\":5407:5516   */\n    tag_79:\n        /* \"#utility.yul\":5488:5509   */\n      tag_153\n        /* \"#utility.yul\":5503:5508   */\n      dup2\n        /* \"#utility.yul\":5488:5509   */\n      tag_78\n      jump\t// in\n    tag_153:\n        /* \"#utility.yul\":5483:5486   */\n      dup3\n        /* \"#utility.yul\":5476:5510   */\n      mstore\n        /* \"#utility.yul\":5407:5516   */\n      pop\n      pop\n      jump\t// out\n        /* \"#utility.yul\":5522:6043   */\n    tag_23:\n        /* \"#utility.yul\":5685:5689   */\n      0x00\n        /* \"#utility.yul\":5723:5725   */\n      0x60\n        /* \"#utility.yul\":5712:5721   */\n      dup3\n        /* \"#utility.yul\":5708:5726   */\n      add\n        /* \"#utility.yul\":5700:5726   */\n      swap1\n      pop\n        /* \"#utility.yul\":5772:5781   */\n      dup2\n        /* \"#utility.yul\":5766:5770   */\n      dup2\n        /* \"#utility.yul\":5762:5782   */\n      sub\n        /* \"#utility.yul\":5758:5759   */\n      0x00\n        /* \"#utility.yul\":5747:5756   */\n      dup4\n        /* \"#utility.yul\":5743:5760   */\n      add\n        /* \"#utility.yul\":5736:5783   */\n      mstore\n        /* \"#utility.yul\":5800:5878   */\n      tag_155\n        /* \"#utility.yul\":5873:5877   */\n      dup2\n        /* \"#utility.yul\":5864:5870   */\n      dup7\n        /* \"#utility.yul\":5800:5878   */\n      tag_76\n      jump\t// in\n    tag_155:\n        /* \"#utility.yul\":5792:5878   */\n      swap1\n      pop\n        /* \"#utility.yul\":5888:5960   */\n      tag_156\n        /* \"#utility.yul\":5956:5958   */\n      0x20\n        /* \"#utility.yul\":5945:5954   */\n      dup4\n        /* \"#utility.yul\":5941:5959   */\n      add\n        /* \"#utility.yul\":5932:5938   */\n      dup6\n        /* \"#utility.yul\":5888:5960   */\n      tag_77\n      jump\t// in\n    tag_156:\n        /* \"#utility.yul\":5970:6036   */\n      tag_157\n        /* \"#utility.yul\":6032:6034   */\n      0x40\n        /* \"#utility.yul\":6021:6030   */\n      dup4\n        /* \"#utility.yul\":6017:6035   */\n      add\n        /* \"#utility.yul\":6008:6014   */\n      dup5\n        /* \"#utility.yul\":5970:6036   */\n      tag_79\n      jump\t// in\n    tag_157:\n        /* \"#utility.yul\":5522:6043   */\n      swap5\n      swap4\n      pop\n      pop\n      pop\n      pop\n      jump\t// out\n        /* \"#utility.yul\":6049:6283   */\n    tag_80:\n        /* \"#utility.yul\":6189:6223   */\n      0x566572696669636174696f6e2063616e206f6e6c7920626520706572666f726d\n        /* \"#utility.yul\":6185:6186   */\n      0x00\n        /* \"#utility.yul\":6177:6183   */\n      dup3\n        /* \"#utility.yul\":6173:6187   */\n      add\n        /* \"#utility.yul\":6166:6224   */\n      mstore\n        /* \"#utility.yul\":6258:6275   */\n      0x65642062792074686520757365722e0000000000000000000000000000000000\n        /* \"#utility.yul\":6253:6255   */\n      0x20\n        /* \"#utility.yul\":6245:6251   */\n      dup3\n        /* \"#utility.yul\":6241:6256   */\n      add\n        /* \"#utility.yul\":6234:6276   */\n      mstore\n        /* \"#utility.yul\":6049:6283   */\n      pop\n      jump\t// out\n        /* \"#utility.yul\":6289:6655   */\n    tag_81:\n        /* \"#utility.yul\":6431:6434   */\n      0x00\n        /* \"#utility.yul\":6452:6519   */\n      tag_160\n        /* \"#utility.yul\":6516:6518   */\n      0x2f\n        /* \"#utility.yul\":6511:6514   */\n      dup4\n        /* \"#utility.yul\":6452:6519   */\n      tag_74\n      jump\t// in\n    tag_160:\n        /* \"#utility.yul\":6445:6519   */\n      swap2\n      pop\n        /* \"#utility.yul\":6528:6621   */\n      tag_161\n        /* \"#utility.yul\":6617:6620   */\n      dup3\n        /* \"#utility.yul\":6528:6621   */\n      tag_80\n      jump\t// in\n    tag_161:\n        /* \"#utility.yul\":6646:6648   */\n      0x40\n        /* \"#utility.yul\":6641:6644   */\n      dup3\n        /* \"#utility.yul\":6637:6649   */\n      add\n        /* \"#utility.yul\":6630:6649   */\n      swap1\n      pop\n        /* \"#utility.yul\":6289:6655   */\n      swap2\n      swap1\n      pop\n      jump\t// out\n        /* \"#utility.yul\":6661:7080   */\n    tag_27:\n        /* \"#utility.yul\":6827:6831   */\n      0x00\n        /* \"#utility.yul\":6865:6867   */\n      0x20\n        /* \"#utility.yul\":6854:6863   */\n      dup3\n        /* \"#utility.yul\":6850:6868   */\n      add\n        /* \"#utility.yul\":6842:6868   */\n      swap1\n      pop\n        /* \"#utility.yul\":6914:6923   */\n      dup2\n        /* \"#utility.yul\":6908:6912   */\n      dup2\n        /* \"#utility.yul\":6904:6924   */\n      sub\n        /* \"#utility.yul\":6900:6901   */\n      0x00\n        /* \"#utility.yul\":6889:6898   */\n      dup4\n        /* \"#utility.yul\":6885:6902   */\n      add\n        /* \"#utility.yul\":6878:6925   */\n      mstore\n        /* \"#utility.yul\":6942:7073   */\n      tag_163\n        /* \"#utility.yul\":7068:7072   */\n      dup2\n        /* \"#utility.yul\":6942:7073   */\n      tag_81\n      jump\t// in\n    tag_163:\n        /* \"#utility.yul\":6934:7073   */\n      swap1\n      pop\n        /* \"#utility.yul\":6661:7080   */\n      swap2\n      swap1\n      pop\n      jump\t// out\n        /* \"#utility.yul\":7086:7266   */\n    tag_82:\n        /* \"#utility.yul\":7134:7211   */\n      0x4e487b7100000000000000000000000000000000000000000000000000000000\n        /* \"#utility.yul\":7131:7132   */\n      0x00\n        /* \"#utility.yul\":7124:7212   */\n      mstore\n        /* \"#utility.yul\":7231:7235   */\n      0x22\n        /* \"#utility.yul\":7228:7229   */\n      0x04\n        /* \"#utility.yul\":7221:7236   */\n      mstore\n        /* \"#utility.yul\":7255:7259   */\n      0x24\n        /* \"#utility.yul\":7252:7253   */\n      0x00\n        /* \"#utility.yul\":7245:7260   */\n      revert\n        /* \"#utility.yul\":7272:7592   */\n    tag_41:\n        /* \"#utility.yul\":7316:7322   */\n      0x00\n        /* \"#utility.yul\":7353:7354   */\n      0x02\n        /* \"#utility.yul\":7347:7351   */\n      dup3\n        /* \"#utility.yul\":7343:7355   */\n      div\n        /* \"#utility.yul\":7333:7355   */\n      swap1\n      pop\n        /* \"#utility.yul\":7400:7401   */\n      0x01\n        /* \"#utility.yul\":7394:7398   */\n      dup3\n        /* \"#utility.yul\":7390:7402   */\n      and\n        /* \"#utility.yul\":7421:7439   */\n      dup1\n        /* \"#utility.yul\":7411:7492   */\n      tag_166\n      jumpi\n        /* \"#utility.yul\":7477:7481   */\n      0x7f\n        /* \"#utility.yul\":7469:7475   */\n      dup3\n        /* \"#utility.yul\":7465:7482   */\n      and\n        /* \"#utility.yul\":7455:7482   */\n      swap2\n      pop\n        /* \"#utility.yul\":7411:7492   */\n    tag_166:\n        /* \"#utility.yul\":7539:7541   */\n      0x20\n        /* \"#utility.yul\":7531:7537   */\n      dup3\n        /* \"#utility.yul\":7528:7542   */\n      lt\n        /* \"#utility.yul\":7508:7526   */\n      dup2\n        /* \"#utility.yul\":7505:7543   */\n      eq\n        /* \"#utility.yul\":7502:7586   */\n      iszero\n      tag_167\n      jumpi\n        /* \"#utility.yul\":7558:7576   */\n      tag_168\n      tag_82\n      jump\t// in\n    tag_168:\n        /* \"#utility.yul\":7502:7586   */\n    tag_167:\n        /* \"#utility.yul\":7323:7592   */\n      pop\n        /* \"#utility.yul\":7272:7592   */\n      swap2\n      swap1\n      pop\n      jump\t// out\n        /* \"#utility.yul\":7598:7739   */\n    tag_83:\n        /* \"#utility.yul\":7647:7651   */\n      0x00\n        /* \"#utility.yul\":7670:7673   */\n      dup2\n        /* \"#utility.yul\":7662:7673   */\n      swap1\n      pop\n        /* \"#utility.yul\":7693:7696   */\n      dup2\n        /* \"#utility.yul\":7690:7691   */\n      0x00\n        /* \"#utility.yul\":7683:7697   */\n      mstore\n        /* \"#utility.yul\":7727:7731   */\n      0x20\n        /* \"#utility.yul\":7724:7725   */\n      0x00\n        /* \"#utility.yul\":7714:7732   */\n      keccak256\n        /* \"#utility.yul\":7706:7732   */\n      swap1\n      pop\n        /* \"#utility.yul\":7598:7739   */\n      swap2\n      swap1\n      pop\n      jump\t// out\n        /* \"#utility.yul\":7769:8571   */\n    tag_84:\n        /* \"#utility.yul\":7854:7857   */\n      0x00\n        /* \"#utility.yul\":7891:7896   */\n      dup2\n        /* \"#utility.yul\":7885:7897   */\n      sload\n        /* \"#utility.yul\":7920:7956   */\n      tag_171\n        /* \"#utility.yul\":7946:7955   */\n      dup2\n        /* \"#utility.yul\":7920:7956   */\n      tag_41\n      jump\t// in\n    tag_171:\n        /* \"#utility.yul\":7972:8043   */\n      tag_172\n        /* \"#utility.yul\":8036:8042   */\n      dup2\n        /* \"#utility.yul\":8031:8034   */\n      dup7\n        /* \"#utility.yul\":7972:8043   */\n      tag_74\n      jump\t// in\n    tag_172:\n        /* \"#utility.yul\":7965:8043   */\n      swap5\n      pop\n        /* \"#utility.yul\":8074:8075   */\n      0x01\n        /* \"#utility.yul\":8063:8072   */\n      dup3\n        /* \"#utility.yul\":8059:8076   */\n      and\n        /* \"#utility.yul\":8090:8091   */\n      0x00\n        /* \"#utility.yul\":8085:8220   */\n      dup2\n      eq\n      tag_174\n      jumpi\n        /* \"#utility.yul\":8234:8235   */\n      0x01\n        /* \"#utility.yul\":8229:8565   */\n      dup2\n      eq\n      tag_175\n      jumpi\n        /* \"#utility.yul\":8052:8565   */\n      jump(tag_173)\n        /* \"#utility.yul\":8085:8220   */\n    tag_174:\n        /* \"#utility.yul\":8169:8173   */\n      0xff\n        /* \"#utility.yul\":8165:8174   */\n      not\n        /* \"#utility.yul\":8154:8163   */\n      dup4\n        /* \"#utility.yul\":8150:8175   */\n      and\n        /* \"#utility.yul\":8145:8148   */\n      dup7\n        /* \"#utility.yul\":8138:8176   */\n      mstore\n        /* \"#utility.yul\":8205:8209   */\n      0x20\n        /* \"#utility.yul\":8200:8203   */\n      dup7\n        /* \"#utility.yul\":8196:8210   */\n      add\n        /* \"#utility.yul\":8189:8210   */\n      swap4\n      pop\n        /* \"#utility.yul\":8085:8220   */\n      jump(tag_173)\n        /* \"#utility.yul\":8229:8565   */\n    tag_175:\n        /* \"#utility.yul\":8296:8334   */\n      tag_176\n        /* \"#utility.yul\":8328:8333   */\n      dup6\n        /* \"#utility.yul\":8296:8334   */\n      tag_83\n      jump\t// in\n    tag_176:\n        /* \"#utility.yul\":8356:8357   */\n      0x00\n        /* \"#utility.yul\":8370:8524   */\n    tag_177:\n        /* \"#utility.yul\":8384:8390   */\n      dup4\n        /* \"#utility.yul\":8381:8382   */\n      dup2\n        /* \"#utility.yul\":8378:8391   */\n      lt\n        /* \"#utility.yul\":8370:8524   */\n      iszero\n      tag_179\n      jumpi\n        /* \"#utility.yul\":8458:8465   */\n      dup2\n        /* \"#utility.yul\":8452:8466   */\n      sload\n        /* \"#utility.yul\":8448:8449   */\n      dup2\n        /* \"#utility.yul\":8443:8446   */\n      dup10\n        /* \"#utility.yul\":8439:8450   */\n      add\n        /* \"#utility.yul\":8432:8467   */\n      mstore\n        /* \"#utility.yul\":8508:8509   */\n      0x01\n        /* \"#utility.yul\":8499:8506   */\n      dup3\n        /* \"#utility.yul\":8495:8510   */\n      add\n        /* \"#utility.yul\":8484:8510   */\n      swap2\n      pop\n        /* \"#utility.yul\":8406:8410   */\n      0x20\n        /* \"#utility.yul\":8403:8404   */\n      dup2\n        /* \"#utility.yul\":8399:8411   */\n      add\n        /* \"#utility.yul\":8394:8411   */\n      swap1\n      pop\n        /* \"#utility.yul\":8370:8524   */\n      jump(tag_177)\n    tag_179:\n        /* \"#utility.yul\":8553:8554   */\n      dup1\n        /* \"#utility.yul\":8548:8551   */\n      dup9\n        /* \"#utility.yul\":8544:8555   */\n      add\n        /* \"#utility.yul\":8537:8555   */\n      swap6\n      pop\n        /* \"#utility.yul\":8236:8565   */\n      pop\n      pop\n        /* \"#utility.yul\":8052:8565   */\n    tag_173:\n      pop\n        /* \"#utility.yul\":7858:8571   */\n      pop\n      pop\n        /* \"#utility.yul\":7769:8571   */\n      swap3\n      swap2\n      pop\n      pop\n      jump\t// out\n        /* \"#utility.yul\":8577:8982   */\n    tag_29:\n        /* \"#utility.yul\":8709:8713   */\n      0x00\n        /* \"#utility.yul\":8747:8749   */\n      0x40\n        /* \"#utility.yul\":8736:8745   */\n      dup3\n        /* \"#utility.yul\":8732:8750   */\n      add\n        /* \"#utility.yul\":8724:8750   */\n      swap1\n      pop\n        /* \"#utility.yul\":8796:8805   */\n      dup2\n        /* \"#utility.yul\":8790:8794   */\n      dup2\n        /* \"#utility.yul\":8786:8806   */\n      sub\n        /* \"#utility.yul\":8782:8783   */\n      0x00\n        /* \"#utility.yul\":8771:8780   */\n      dup4\n        /* \"#utility.yul\":8767:8784   */\n      add\n        /* \"#utility.yul\":8760:8807   */\n      mstore\n        /* \"#utility.yul\":8824:8899   */\n      tag_181\n        /* \"#utility.yul\":8894:8898   */\n      dup2\n        /* \"#utility.yul\":8885:8891   */\n      dup6\n        /* \"#utility.yul\":8824:8899   */\n      tag_84\n      jump\t// in\n    tag_181:\n        /* \"#utility.yul\":8816:8899   */\n      swap1\n      pop\n        /* \"#utility.yul\":8909:8975   */\n      tag_182\n        /* \"#utility.yul\":8971:8973   */\n      0x20\n        /* \"#utility.yul\":8960:8969   */\n      dup4\n        /* \"#utility.yul\":8956:8974   */\n      add\n        /* \"#utility.yul\":8947:8953   */\n      dup5\n        /* \"#utility.yul\":8909:8975   */\n      tag_79\n      jump\t// in\n    tag_182:\n        /* \"#utility.yul\":8577:8982   */\n      swap4\n      swap3\n      pop\n      pop\n      pop\n      jump\t// out\n        /* \"#utility.yul\":8988:9161   */\n    tag_85:\n        /* \"#utility.yul\":9128:9153   */\n      0x5573657220616c72656164792072656769737465726564000000000000000000\n        /* \"#utility.yul\":9124:9125   */\n      0x00\n        /* \"#utility.yul\":9116:9122   */\n      dup3\n        /* \"#utility.yul\":9112:9126   */\n      add\n        /* \"#utility.yul\":9105:9154   */\n      mstore\n        /* \"#utility.yul\":8988:9161   */\n      pop\n      jump\t// out\n        /* \"#utility.yul\":9167:9533   */\n    tag_86:\n        /* \"#utility.yul\":9309:9312   */\n      0x00\n        /* \"#utility.yul\":9330:9397   */\n      tag_185\n        /* \"#utility.yul\":9394:9396   */\n      0x17\n        /* \"#utility.yul\":9389:9392   */\n      dup4\n        /* \"#utility.yul\":9330:9397   */\n      tag_74\n      jump\t// in\n    tag_185:\n        /* \"#utility.yul\":9323:9397   */\n      swap2\n      pop\n        /* \"#utility.yul\":9406:9499   */\n      tag_186\n        /* \"#utility.yul\":9495:9498   */\n      dup3\n        /* \"#utility.yul\":9406:9499   */\n      tag_85\n      jump\t// in\n    tag_186:\n        /* \"#utility.yul\":9524:9526   */\n      0x20\n        /* \"#utility.yul\":9519:9522   */\n      dup3\n        /* \"#utility.yul\":9515:9527   */\n      add\n        /* \"#utility.yul\":9508:9527   */\n      swap1\n      pop\n        /* \"#utility.yul\":9167:9533   */\n      swap2\n      swap1\n      pop\n      jump\t// out\n        /* \"#utility.yul\":9539:9958   */\n    tag_33:\n        /* \"#utility.yul\":9705:9709   */\n      0x00\n        /* \"#utility.yul\":9743:9745   */\n      0x20\n        /* \"#utility.yul\":9732:9741   */\n      dup3\n        /* \"#utility.yul\":9728:9746   */\n      add\n        /* \"#utility.yul\":9720:9746   */\n      swap1\n      pop\n        /* \"#utility.yul\":9792:9801   */\n      dup2\n        /* \"#utility.yul\":9786:9790   */\n      dup2\n        /* \"#utility.yul\":9782:9802   */\n      sub\n        /* \"#utility.yul\":9778:9779   */\n      0x00\n        /* \"#utility.yul\":9767:9776   */\n      dup4\n        /* \"#utility.yul\":9763:9780   */\n      add\n        /* \"#utility.yul\":9756:9803   */\n      mstore\n        /* \"#utility.yul\":9820:9951   */\n      tag_188\n        /* \"#utility.yul\":9946:9950   */\n      dup2\n        /* \"#utility.yul\":9820:9951   */\n      tag_86\n      jump\t// in\n    tag_188:\n        /* \"#utility.yul\":9812:9951   */\n      swap1\n      pop\n        /* \"#utility.yul\":9539:9958   */\n      swap2\n      swap1\n      pop\n      jump\t// out\n        /* \"#utility.yul\":9964:10375   */\n    tag_38:\n        /* \"#utility.yul\":10099:10103   */\n      0x00\n        /* \"#utility.yul\":10137:10139   */\n      0x40\n        /* \"#utility.yul\":10126:10135   */\n      dup3\n        /* \"#utility.yul\":10122:10140   */\n      add\n        /* \"#utility.yul\":10114:10140   */\n      swap1\n      pop\n        /* \"#utility.yul\":10186:10195   */\n      dup2\n        /* \"#utility.yul\":10180:10184   */\n      dup2\n        /* \"#utility.yul\":10176:10196   */\n      sub\n        /* \"#utility.yul\":10172:10173   */\n      0x00\n        /* \"#utility.yul\":10161:10170   */\n      dup4\n        /* \"#utility.yul\":10157:10174   */\n      add\n        /* \"#utility.yul\":10150:10197   */\n      mstore\n        /* \"#utility.yul\":10214:10292   */\n      tag_190\n        /* \"#utility.yul\":10287:10291   */\n      dup2\n        /* \"#utility.yul\":10278:10284   */\n      dup6\n        /* \"#utility.yul\":10214:10292   */\n      tag_76\n      jump\t// in\n    tag_190:\n        /* \"#utility.yul\":10206:10292   */\n      swap1\n      pop\n        /* \"#utility.yul\":10302:10368   */\n      tag_191\n        /* \"#utility.yul\":10364:10366   */\n      0x20\n        /* \"#utility.yul\":10353:10362   */\n      dup4\n        /* \"#utility.yul\":10349:10367   */\n      add\n        /* \"#utility.yul\":10340:10346   */\n      dup5\n        /* \"#utility.yul\":10302:10368   */\n      tag_79\n      jump\t// in\n    tag_191:\n        /* \"#utility.yul\":9964:10375   */\n      swap4\n      swap3\n      pop\n      pop\n      pop\n      jump\t// out\n\n    auxdata: 0xa2646970667358221220456c3153e87b4c9ca6c89ff4e1a0efc4494d3704bb329390ff4eeb6d786f976764736f6c634300080a0033\n}\n",
    "bytecode": {
      "linkReferences": {},
      "object": "608060405234801561001057600080fd5b50610bdb806100206000396000f3fe608060405234801561001057600080fd5b506004361061004c5760003560e01c80634d81312014610051578063704f1b941461006d578063919840ad14610089578063a87430ba146100a7575b600080fd5b61006b60048036038101906100669190610683565b6100d9565b005b610087600480360381019061008291906107f6565b610235565b005b610091610452565b60405161009e91906108c7565b60405180910390f35b6100c160048036038101906100bc9190610683565b61048f565b6040516100d093929190610913565b60405180910390f35b8073ffffffffffffffffffffffffffffffffffffffff163373ffffffffffffffffffffffffffffffffffffffff1614610147576040517f08c379a000000000000000000000000000000000000000000000000000000000815260040161013e906109c3565b60405180910390fd5b60016000808373ffffffffffffffffffffffffffffffffffffffff1673ffffffffffffffffffffffffffffffffffffffff16815260200190815260200160002060010160146101000a81548160ff0219169083151502179055508073ffffffffffffffffffffffffffffffffffffffff167f0b2d2fe99b0620e0994de6f522eb19dcc5b5fd39b27be67cea0547c4ed9dbdfc6000808473ffffffffffffffffffffffffffffffffffffffff1673ffffffffffffffffffffffffffffffffffffffff168152602001908152602001600020600001600160405161022a929190610ad9565b60405180910390a250565b600073ffffffffffffffffffffffffffffffffffffffff166000803373ffffffffffffffffffffffffffffffffffffffff1673ffffffffffffffffffffffffffffffffffffffff16815260200190815260200160002060010160009054906101000a900473ffffffffffffffffffffffffffffffffffffffff1673ffffffffffffffffffffffffffffffffffffffff1614610305576040517f08c379a00000000000000000000000000000000000000000000000000000000081526004016102fc90610b55565b60405180910390fd5b60405180606001604052808281526020013373ffffffffffffffffffffffffffffffffffffffff168152602001600015158152506000803373ffffffffffffffffffffffffffffffffffffffff1673ffffffffffffffffffffffffffffffffffffffff168152602001908152602001600020600082015181600001908051906020019061039392919061056e565b5060208201518160010160006101000a81548173ffffffffffffffffffffffffffffffffffffffff021916908373ffffffffffffffffffffffffffffffffffffffff16021790555060408201518160010160146101000a81548160ff0219169083151502179055509050503373ffffffffffffffffffffffffffffffffffffffff167f0b2d2fe99b0620e0994de6f522eb19dcc5b5fd39b27be67cea0547c4ed9dbdfc826000604051610447929190610b75565b60405180910390a250565b60606040518060400160405280600a81526020017f48656c6c6f205072656d00000000000000000000000000000000000000000000815250905090565b60006020528060005260406000206000915090508060000180546104b290610a12565b80601f01602080910402602001604051908101604052809291908181526020018280546104de90610a12565b801561052b5780601f106105005761010080835404028352916020019161052b565b820191906000526020600020905b81548152906001019060200180831161050e57829003601f168201915b5050505050908060010160009054906101000a900473ffffffffffffffffffffffffffffffffffffffff16908060010160149054906101000a900460ff16905083565b82805461057a90610a12565b90600052602060002090601f01602090048101928261059c57600085556105e3565b82601f106105b557805160ff19168380011785556105e3565b828001600101855582156105e3579182015b828111156105e25782518255916020019190600101906105c7565b5b5090506105f091906105f4565b5090565b5b8082111561060d5760008160009055506001016105f5565b5090565b6000604051905090565b600080fd5b600080fd5b600073ffffffffffffffffffffffffffffffffffffffff82169050919050565b600061065082610625565b9050919050565b61066081610645565b811461066b57600080fd5b50565b60008135905061067d81610657565b92915050565b6000602082840312156106995761069861061b565b5b60006106a78482850161066e565b91505092915050565b600080fd5b600080fd5b6000601f19601f8301169050919050565b7f4e487b7100000000000000000000000000000000000000000000000000000000600052604160045260246000fd5b610703826106ba565b810181811067ffffffffffffffff82111715610722576107216106cb565b5b80604052505050565b6000610735610611565b905061074182826106fa565b919050565b600067ffffffffffffffff821115610761576107606106cb565b5b61076a826106ba565b9050602081019050919050565b82818337600083830152505050565b600061079961079484610746565b61072b565b9050828152602081018484840111156107b5576107b46106b5565b5b6107c0848285610777565b509392505050565b600082601f8301126107dd576107dc6106b0565b5b81356107ed848260208601610786565b91505092915050565b60006020828403121561080c5761080b61061b565b5b600082013567ffffffffffffffff81111561082a57610829610620565b5b610836848285016107c8565b91505092915050565b600081519050919050565b600082825260208201905092915050565b60005b8381101561087957808201518184015260208101905061085e565b83811115610888576000848401525b50505050565b60006108998261083f565b6108a3818561084a565b93506108b381856020860161085b565b6108bc816106ba565b840191505092915050565b600060208201905081810360008301526108e1818461088e565b905092915050565b6108f281610645565b82525050565b60008115159050919050565b61090d816108f8565b82525050565b6000606082019050818103600083015261092d818661088e565b905061093c60208301856108e9565b6109496040830184610904565b949350505050565b7f566572696669636174696f6e2063616e206f6e6c7920626520706572666f726d60008201527f65642062792074686520757365722e0000000000000000000000000000000000602082015250565b60006109ad602f8361084a565b91506109b882610951565b604082019050919050565b600060208201905081810360008301526109dc816109a0565b9050919050565b7f4e487b7100000000000000000000000000000000000000000000000000000000600052602260045260246000fd5b60006002820490506001821680610a2a57607f821691505b60208210811415610a3e57610a3d6109e3565b5b50919050565b60008190508160005260206000209050919050565b60008154610a6681610a12565b610a70818661084a565b94506001821660008114610a8b5760018114610a9d57610ad0565b60ff1983168652602086019350610ad0565b610aa685610a44565b60005b83811015610ac857815481890152600182019150602081019050610aa9565b808801955050505b50505092915050565b60006040820190508181036000830152610af38185610a59565b9050610b026020830184610904565b9392505050565b7f5573657220616c72656164792072656769737465726564000000000000000000600082015250565b6000610b3f60178361084a565b9150610b4a82610b09565b602082019050919050565b60006020820190508181036000830152610b6e81610b32565b9050919050565b60006040820190508181036000830152610b8f818561088e565b9050610b9e6020830184610904565b939250505056fea2646970667358221220456c3153e87b4c9ca6c89ff4e1a0efc4494d3704bb329390ff4eeb6d786f976764736f6c634300080a0033",
      "opcodes": "PUSH1 0x80 PUSH1 0x40 MSTORE CALLVALUE DUP1 ISZERO PUSH2 0x10 JUMPI PUSH1 0x0 DUP1 REVERT JUMPDEST POP PUSH2 0xBDB DUP1 PUSH2 0x20 PUSH1 0x0 CODECOPY PUSH1 0x0 RETURN INVALID PUSH1 0x80 PUSH1 0x40 MSTORE CALLVALUE DUP1 ISZERO PUSH2 0x10 JUMPI PUSH1 0x0 DUP1 REVERT JUMPDEST POP PUSH1 0x4 CALLDATASIZE LT PUSH2 0x4C JUMPI PUSH1 0x0 CALLDATALOAD PUSH1 0xE0 SHR DUP1 PUSH4 0x4D813120 EQ PUSH2 0x51 JUMPI DUP1 PUSH4 0x704F1B94 EQ PUSH2 0x6D JUMPI DUP1 PUSH4 0x919840AD EQ PUSH2 0x89 JUMPI DUP1 PUSH4 0xA87430BA EQ PUSH2 0xA7 JUMPI JUMPDEST PUSH1 0x0 DUP1 REVERT JUMPDEST PUSH2 0x6B PUSH1 0x4 DUP1 CALLDATASIZE SUB DUP2 ADD SWAP1 PUSH2 0x66 SWAP2 SWAP1 PUSH2 0x683 JUMP JUMPDEST PUSH2 0xD9 JUMP JUMPDEST STOP JUMPDEST PUSH2 0x87 PUSH1 0x4 DUP1 CALLDATASIZE SUB DUP2 ADD SWAP1 PUSH2 0x82 SWAP2 SWAP1 PUSH2 0x7F6 JUMP JUMPDEST PUSH2 0x235 JUMP JUMPDEST STOP JUMPDEST PUSH2 0x91 PUSH2 0x452 JUMP JUMPDEST PUSH1 0x40 MLOAD PUSH2 0x9E SWAP2 SWAP1 PUSH2 0x8C7 JUMP JUMPDEST PUSH1 0x40 MLOAD DUP1 SWAP2 SUB SWAP1 RETURN JUMPDEST PUSH2 0xC1 PUSH1 0x4 DUP1 CALLDATASIZE SUB DUP2 ADD SWAP1 PUSH2 0xBC SWAP2 SWAP1 PUSH2 0x683 JUMP JUMPDEST PUSH2 0x48F JUMP JUMPDEST PUSH1 0x40 MLOAD PUSH2 0xD0 SWAP4 SWAP3 SWAP2 SWAP1 PUSH2 0x913 JUMP JUMPDEST PUSH1 0x40 MLOAD DUP1 SWAP2 SUB SWAP1 RETURN JUMPDEST DUP1 PUSH20 0xFFFFFFFFFFFFFFFFFFFFFFFFFFFFFFFFFFFFFFFF AND CALLER PUSH20 0xFFFFFFFFFFFFFFFFFFFFFFFFFFFFFFFFFFFFFFFF AND EQ PUSH2 0x147 JUMPI PUSH1 0x40 MLOAD PUSH32 0x8C379A000000000000000000000000000000000000000000000000000000000 DUP2 MSTORE PUSH1 0x4 ADD PUSH2 0x13E SWAP1 PUSH2 0x9C3 JUMP JUMPDEST PUSH1 0x40 MLOAD DUP1 SWAP2 SUB SWAP1 REVERT JUMPDEST PUSH1 0x1 PUSH1 0x0 DUP1 DUP4 PUSH20 0xFFFFFFFFFFFFFFFFFFFFFFFFFFFFFFFFFFFFFFFF AND PUSH20 0xFFFFFFFFFFFFFFFFFFFFFFFFFFFFFFFFFFFFFFFF AND DUP2 MSTORE PUSH1 0x20 ADD SWAP1 DUP2 MSTORE PUSH1 0x20 ADD PUSH1 0x0 KECCAK256 PUSH1 0x1 ADD PUSH1 0x14 PUSH2 0x100 EXP DUP2 SLOAD DUP2 PUSH1 0xFF MUL NOT AND SWAP1 DUP4 ISZERO ISZERO MUL OR SWAP1 SSTORE POP DUP1 PUSH20 0xFFFFFFFFFFFFFFFFFFFFFFFFFFFFFFFFFFFFFFFF AND PUSH32 0xB2D2FE99B0620E0994DE6F522EB19DCC5B5FD39B27BE67CEA0547C4ED9DBDFC PUSH1 0x0 DUP1 DUP5 PUSH20 0xFFFFFFFFFFFFFFFFFFFFFFFFFFFFFFFFFFFFFFFF AND PUSH20 0xFFFFFFFFFFFFFFFFFFFFFFFFFFFFFFFFFFFFFFFF AND DUP2 MSTORE PUSH1 0x20 ADD SWAP1 DUP2 MSTORE PUSH1 0x20 ADD PUSH1 0x0 KECCAK256 PUSH1 0x0 ADD PUSH1 0x1 PUSH1 0x40 MLOAD PUSH2 0x22A SWAP3 SWAP2 SWAP1 PUSH2 0xAD9 JUMP JUMPDEST PUSH1 0x40 MLOAD DUP1 SWAP2 SUB SWAP1 LOG2 POP JUMP JUMPDEST PUSH1 0x0 PUSH20 0xFFFFFFFFFFFFFFFFFFFFFFFFFFFFFFFFFFFFFFFF AND PUSH1 0x0 DUP1 CALLER PUSH20 0xFFFFFFFFFFFFFFFFFFFFFFFFFFFFFFFFFFFFFFFF AND PUSH20 0xFFFFFFFFFFFFFFFFFFFFFFFFFFFFFFFFFFFFFFFF AND DUP2 MSTORE PUSH1 0x20 ADD SWAP1 DUP2 MSTORE PUSH1 0x20 ADD PUSH1 0x0 KECCAK256 PUSH1 0x1 ADD PUSH1 0x0 SWAP1 SLOAD SWAP1 PUSH2 0x100 EXP SWAP1 DIV PUSH20 0xFFFFFFFFFFFFFFFFFFFFFFFFFFFFFFFFFFFFFFFF AND PUSH20 0xFFFFFFFFFFFFFFFFFFFFFFFFFFFFFFFFFFFFFFFF AND EQ PUSH2 0x305 JUMPI PUSH1 0x40 MLOAD PUSH32 0x8C379A000000000000000000000000000000000000000000000000000000000 DUP2 MSTORE PUSH1 0x4 ADD PUSH2 0x2FC SWAP1 PUSH2 0xB55 JUMP JUMPDEST PUSH1 0x40 MLOAD DUP1 SWAP2 SUB SWAP1 REVERT JUMPDEST PUSH1 0x40 MLOAD DUP1 PUSH1 0x60 ADD PUSH1 0x40 MSTORE DUP1 DUP3 DUP2 MSTORE PUSH1 0x20 ADD CALLER PUSH20 0xFFFFFFFFFFFFFFFFFFFFFFFFFFFFFFFFFFFFFFFF AND DUP2 MSTORE PUSH1 0x20 ADD PUSH1 0x0 ISZERO ISZERO DUP2 MSTORE POP PUSH1 0x0 DUP1 CALLER PUSH20 0xFFFFFFFFFFFFFFFFFFFFFFFFFFFFFFFFFFFFFFFF AND PUSH20 0xFFFFFFFFFFFFFFFFFFFFFFFFFFFFFFFFFFFFFFFF AND DUP2 MSTORE PUSH1 0x20 ADD SWAP1 DUP2 MSTORE PUSH1 0x20 ADD PUSH1 0x0 KECCAK256 PUSH1 0x0 DUP3 ADD MLOAD DUP2 PUSH1 0x0 ADD SWAP1 DUP1 MLOAD SWAP1 PUSH1 0x20 ADD SWAP1 PUSH2 0x393 SWAP3 SWAP2 SWAP1 PUSH2 0x56E JUMP JUMPDEST POP PUSH1 0x20 DUP3 ADD MLOAD DUP2 PUSH1 0x1 ADD PUSH1 0x0 PUSH2 0x100 EXP DUP2 SLOAD DUP2 PUSH20 0xFFFFFFFFFFFFFFFFFFFFFFFFFFFFFFFFFFFFFFFF MUL NOT AND SWAP1 DUP4 PUSH20 0xFFFFFFFFFFFFFFFFFFFFFFFFFFFFFFFFFFFFFFFF AND MUL OR SWAP1 SSTORE POP PUSH1 0x40 DUP3 ADD MLOAD DUP2 PUSH1 0x1 ADD PUSH1 0x14 PUSH2 0x100 EXP DUP2 SLOAD DUP2 PUSH1 0xFF MUL NOT AND SWAP1 DUP4 ISZERO ISZERO MUL OR SWAP1 SSTORE POP SWAP1 POP POP CALLER PUSH20 0xFFFFFFFFFFFFFFFFFFFFFFFFFFFFFFFFFFFFFFFF AND PUSH32 0xB2D2FE99B0620E0994DE6F522EB19DCC5B5FD39B27BE67CEA0547C4ED9DBDFC DUP3 PUSH1 0x0 PUSH1 0x40 MLOAD PUSH2 0x447 SWAP3 SWAP2 SWAP1 PUSH2 0xB75 JUMP JUMPDEST PUSH1 0x40 MLOAD DUP1 SWAP2 SUB SWAP1 LOG2 POP JUMP JUMPDEST PUSH1 0x60 PUSH1 0x40 MLOAD DUP1 PUSH1 0x40 ADD PUSH1 0x40 MSTORE DUP1 PUSH1 0xA DUP2 MSTORE PUSH1 0x20 ADD PUSH32 0x48656C6C6F205072656D00000000000000000000000000000000000000000000 DUP2 MSTORE POP SWAP1 POP SWAP1 JUMP JUMPDEST PUSH1 0x0 PUSH1 0x20 MSTORE DUP1 PUSH1 0x0 MSTORE PUSH1 0x40 PUSH1 0x0 KECCAK256 PUSH1 0x0 SWAP2 POP SWAP1 POP DUP1 PUSH1 0x0 ADD DUP1 SLOAD PUSH2 0x4B2 SWAP1 PUSH2 0xA12 JUMP JUMPDEST DUP1 PUSH1 0x1F ADD PUSH1 0x20 DUP1 SWAP2 DIV MUL PUSH1 0x20 ADD PUSH1 0x40 MLOAD SWAP1 DUP2 ADD PUSH1 0x40 MSTORE DUP1 SWAP3 SWAP2 SWAP1 DUP2 DUP2 MSTORE PUSH1 0x20 ADD DUP3 DUP1 SLOAD PUSH2 0x4DE SWAP1 PUSH2 0xA12 JUMP JUMPDEST DUP1 ISZERO PUSH2 0x52B JUMPI DUP1 PUSH1 0x1F LT PUSH2 0x500 JUMPI PUSH2 0x100 DUP1 DUP4 SLOAD DIV MUL DUP4 MSTORE SWAP2 PUSH1 0x20 ADD SWAP2 PUSH2 0x52B JUMP JUMPDEST DUP3 ADD SWAP2 SWAP1 PUSH1 0x0 MSTORE PUSH1 0x20 PUSH1 0x0 KECCAK256 SWAP1 JUMPDEST DUP2 SLOAD DUP2 MSTORE SWAP1 PUSH1 0x1 ADD SWAP1 PUSH1 0x20 ADD DUP1 DUP4 GT PUSH2 0x50E JUMPI DUP3 SWAP1 SUB PUSH1 0x1F AND DUP3 ADD SWAP2 JUMPDEST POP POP POP POP POP SWAP1 DUP1 PUSH1 0x1 ADD PUSH1 0x0 SWAP1 SLOAD SWAP1 PUSH2 0x100 EXP SWAP1 DIV PUSH20 0xFFFFFFFFFFFFFFFFFFFFFFFFFFFFFFFFFFFFFFFF AND SWAP1 DUP1 PUSH1 0x1 ADD PUSH1 0x14 SWAP1 SLOAD SWAP1 PUSH2 0x100 EXP SWAP1 DIV PUSH1 0xFF AND SWAP1 POP DUP4 JUMP JUMPDEST DUP3 DUP1 SLOAD PUSH2 0x57A SWAP1 PUSH2 0xA12 JUMP JUMPDEST SWAP1 PUSH1 0x0 MSTORE PUSH1 0x20 PUSH1 0x0 KECCAK256 SWAP1 PUSH1 0x1F ADD PUSH1 0x20 SWAP1 DIV DUP2 ADD SWAP3 DUP3 PUSH2 0x59C JUMPI PUSH1 0x0 DUP6 SSTORE PUSH2 0x5E3 JUMP JUMPDEST DUP3 PUSH1 0x1F LT PUSH2 0x5B5 JUMPI DUP1 MLOAD PUSH1 0xFF NOT AND DUP4 DUP1 ADD OR DUP6 SSTORE PUSH2 0x5E3 JUMP JUMPDEST DUP3 DUP1 ADD PUSH1 0x1 ADD DUP6 SSTORE DUP3 ISZERO PUSH2 0x5E3 JUMPI SWAP2 DUP3 ADD JUMPDEST DUP3 DUP2 GT ISZERO PUSH2 0x5E2 JUMPI DUP3 MLOAD DUP3 SSTORE SWAP2 PUSH1 0x20 ADD SWAP2 SWAP1 PUSH1 0x1 ADD SWAP1 PUSH2 0x5C7 JUMP JUMPDEST JUMPDEST POP SWAP1 POP PUSH2 0x5F0 SWAP2 SWAP1 PUSH2 0x5F4 JUMP JUMPDEST POP SWAP1 JUMP JUMPDEST JUMPDEST DUP1 DUP3 GT ISZERO PUSH2 0x60D JUMPI PUSH1 0x0 DUP2 PUSH1 0x0 SWAP1 SSTORE POP PUSH1 0x1 ADD PUSH2 0x5F5 JUMP JUMPDEST POP SWAP1 JUMP JUMPDEST PUSH1 0x0 PUSH1 0x40 MLOAD SWAP1 POP SWAP1 JUMP JUMPDEST PUSH1 0x0 DUP1 REVERT JUMPDEST PUSH1 0x0 DUP1 REVERT JUMPDEST PUSH1 0x0 PUSH20 0xFFFFFFFFFFFFFFFFFFFFFFFFFFFFFFFFFFFFFFFF DUP3 AND SWAP1 POP SWAP2 SWAP1 POP JUMP JUMPDEST PUSH1 0x0 PUSH2 0x650 DUP3 PUSH2 0x625 JUMP JUMPDEST SWAP1 POP SWAP2 SWAP1 POP JUMP JUMPDEST PUSH2 0x660 DUP2 PUSH2 0x645 JUMP JUMPDEST DUP2 EQ PUSH2 0x66B JUMPI PUSH1 0x0 DUP1 REVERT JUMPDEST POP JUMP JUMPDEST PUSH1 0x0 DUP2 CALLDATALOAD SWAP1 POP PUSH2 0x67D DUP2 PUSH2 0x657 JUMP JUMPDEST SWAP3 SWAP2 POP POP JUMP JUMPDEST PUSH1 0x0 PUSH1 0x20 DUP3 DUP5 SUB SLT ISZERO PUSH2 0x699 JUMPI PUSH2 0x698 PUSH2 0x61B JUMP JUMPDEST JUMPDEST PUSH1 0x0 PUSH2 0x6A7 DUP5 DUP3 DUP6 ADD PUSH2 0x66E JUMP JUMPDEST SWAP2 POP POP SWAP3 SWAP2 POP POP JUMP JUMPDEST PUSH1 0x0 DUP1 REVERT JUMPDEST PUSH1 0x0 DUP1 REVERT JUMPDEST PUSH1 0x0 PUSH1 0x1F NOT PUSH1 0x1F DUP4 ADD AND SWAP1 POP SWAP2 SWAP1 POP JUMP JUMPDEST PUSH32 0x4E487B7100000000000000000000000000000000000000000000000000000000 PUSH1 0x0 MSTORE PUSH1 0x41 PUSH1 0x4 MSTORE PUSH1 0x24 PUSH1 0x0 REVERT JUMPDEST PUSH2 0x703 DUP3 PUSH2 0x6BA JUMP JUMPDEST DUP2 ADD DUP2 DUP2 LT PUSH8 0xFFFFFFFFFFFFFFFF DUP3 GT OR ISZERO PUSH2 0x722 JUMPI PUSH2 0x721 PUSH2 0x6CB JUMP JUMPDEST JUMPDEST DUP1 PUSH1 0x40 MSTORE POP POP POP JUMP JUMPDEST PUSH1 0x0 PUSH2 0x735 PUSH2 0x611 JUMP JUMPDEST SWAP1 POP PUSH2 0x741 DUP3 DUP3 PUSH2 0x6FA JUMP JUMPDEST SWAP2 SWAP1 POP JUMP JUMPDEST PUSH1 0x0 PUSH8 0xFFFFFFFFFFFFFFFF DUP3 GT ISZERO PUSH2 0x761 JUMPI PUSH2 0x760 PUSH2 0x6CB JUMP JUMPDEST JUMPDEST PUSH2 0x76A DUP3 PUSH2 0x6BA JUMP JUMPDEST SWAP1 POP PUSH1 0x20 DUP2 ADD SWAP1 POP SWAP2 SWAP1 POP JUMP JUMPDEST DUP3 DUP2 DUP4 CALLDATACOPY PUSH1 0x0 DUP4 DUP4 ADD MSTORE POP POP POP JUMP JUMPDEST PUSH1 0x0 PUSH2 0x799 PUSH2 0x794 DUP5 PUSH2 0x746 JUMP JUMPDEST PUSH2 0x72B JUMP JUMPDEST SWAP1 POP DUP3 DUP2 MSTORE PUSH1 0x20 DUP2 ADD DUP5 DUP5 DUP5 ADD GT ISZERO PUSH2 0x7B5 JUMPI PUSH2 0x7B4 PUSH2 0x6B5 JUMP JUMPDEST JUMPDEST PUSH2 0x7C0 DUP5 DUP3 DUP6 PUSH2 0x777 JUMP JUMPDEST POP SWAP4 SWAP3 POP POP POP JUMP JUMPDEST PUSH1 0x0 DUP3 PUSH1 0x1F DUP4 ADD SLT PUSH2 0x7DD JUMPI PUSH2 0x7DC PUSH2 0x6B0 JUMP JUMPDEST JUMPDEST DUP2 CALLDATALOAD PUSH2 0x7ED DUP5 DUP3 PUSH1 0x20 DUP7 ADD PUSH2 0x786 JUMP JUMPDEST SWAP2 POP POP SWAP3 SWAP2 POP POP JUMP JUMPDEST PUSH1 0x0 PUSH1 0x20 DUP3 DUP5 SUB SLT ISZERO PUSH2 0x80C JUMPI PUSH2 0x80B PUSH2 0x61B JUMP JUMPDEST JUMPDEST PUSH1 0x0 DUP3 ADD CALLDATALOAD PUSH8 0xFFFFFFFFFFFFFFFF DUP2 GT ISZERO PUSH2 0x82A JUMPI PUSH2 0x829 PUSH2 0x620 JUMP JUMPDEST JUMPDEST PUSH2 0x836 DUP5 DUP3 DUP6 ADD PUSH2 0x7C8 JUMP JUMPDEST SWAP2 POP POP SWAP3 SWAP2 POP POP JUMP JUMPDEST PUSH1 0x0 DUP2 MLOAD SWAP1 POP SWAP2 SWAP1 POP JUMP JUMPDEST PUSH1 0x0 DUP3 DUP3 MSTORE PUSH1 0x20 DUP3 ADD SWAP1 POP SWAP3 SWAP2 POP POP JUMP JUMPDEST PUSH1 0x0 JUMPDEST DUP4 DUP2 LT ISZERO PUSH2 0x879 JUMPI DUP1 DUP3 ADD MLOAD DUP2 DUP5 ADD MSTORE PUSH1 0x20 DUP2 ADD SWAP1 POP PUSH2 0x85E JUMP JUMPDEST DUP4 DUP2 GT ISZERO PUSH2 0x888 JUMPI PUSH1 0x0 DUP5 DUP5 ADD MSTORE JUMPDEST POP POP POP POP JUMP JUMPDEST PUSH1 0x0 PUSH2 0x899 DUP3 PUSH2 0x83F JUMP JUMPDEST PUSH2 0x8A3 DUP2 DUP6 PUSH2 0x84A JUMP JUMPDEST SWAP4 POP PUSH2 0x8B3 DUP2 DUP6 PUSH1 0x20 DUP7 ADD PUSH2 0x85B JUMP JUMPDEST PUSH2 0x8BC DUP2 PUSH2 0x6BA JUMP JUMPDEST DUP5 ADD SWAP2 POP POP SWAP3 SWAP2 POP POP JUMP JUMPDEST PUSH1 0x0 PUSH1 0x20 DUP3 ADD SWAP1 POP DUP2 DUP2 SUB PUSH1 0x0 DUP4 ADD MSTORE PUSH2 0x8E1 DUP2 DUP5 PUSH2 0x88E JUMP JUMPDEST SWAP1 POP SWAP3 SWAP2 POP POP JUMP JUMPDEST PUSH2 0x8F2 DUP2 PUSH2 0x645 JUMP JUMPDEST DUP3 MSTORE POP POP JUMP JUMPDEST PUSH1 0x0 DUP2 ISZERO ISZERO SWAP1 POP SWAP2 SWAP1 POP JUMP JUMPDEST PUSH2 0x90D DUP2 PUSH2 0x8F8 JUMP JUMPDEST DUP3 MSTORE POP POP JUMP JUMPDEST PUSH1 0x0 PUSH1 0x60 DUP3 ADD SWAP1 POP DUP2 DUP2 SUB PUSH1 0x0 DUP4 ADD MSTORE PUSH2 0x92D DUP2 DUP7 PUSH2 0x88E JUMP JUMPDEST SWAP1 POP PUSH2 0x93C PUSH1 0x20 DUP4 ADD DUP6 PUSH2 0x8E9 JUMP JUMPDEST PUSH2 0x949 PUSH1 0x40 DUP4 ADD DUP5 PUSH2 0x904 JUMP JUMPDEST SWAP5 SWAP4 POP POP POP POP JUMP JUMPDEST PUSH32 0x566572696669636174696F6E2063616E206F6E6C7920626520706572666F726D PUSH1 0x0 DUP3 ADD MSTORE PUSH32 0x65642062792074686520757365722E0000000000000000000000000000000000 PUSH1 0x20 DUP3 ADD MSTORE POP JUMP JUMPDEST PUSH1 0x0 PUSH2 0x9AD PUSH1 0x2F DUP4 PUSH2 0x84A JUMP JUMPDEST SWAP2 POP PUSH2 0x9B8 DUP3 PUSH2 0x951 JUMP JUMPDEST PUSH1 0x40 DUP3 ADD SWAP1 POP SWAP2 SWAP1 POP JUMP JUMPDEST PUSH1 0x0 PUSH1 0x20 DUP3 ADD SWAP1 POP DUP2 DUP2 SUB PUSH1 0x0 DUP4 ADD MSTORE PUSH2 0x9DC DUP2 PUSH2 0x9A0 JUMP JUMPDEST SWAP1 POP SWAP2 SWAP1 POP JUMP JUMPDEST PUSH32 0x4E487B7100000000000000000000000000000000000000000000000000000000 PUSH1 0x0 MSTORE PUSH1 0x22 PUSH1 0x4 MSTORE PUSH1 0x24 PUSH1 0x0 REVERT JUMPDEST PUSH1 0x0 PUSH1 0x2 DUP3 DIV SWAP1 POP PUSH1 0x1 DUP3 AND DUP1 PUSH2 0xA2A JUMPI PUSH1 0x7F DUP3 AND SWAP2 POP JUMPDEST PUSH1 0x20 DUP3 LT DUP2 EQ ISZERO PUSH2 0xA3E JUMPI PUSH2 0xA3D PUSH2 0x9E3 JUMP JUMPDEST JUMPDEST POP SWAP2 SWAP1 POP JUMP JUMPDEST PUSH1 0x0 DUP2 SWAP1 POP DUP2 PUSH1 0x0 MSTORE PUSH1 0x20 PUSH1 0x0 KECCAK256 SWAP1 POP SWAP2 SWAP1 POP JUMP JUMPDEST PUSH1 0x0 DUP2 SLOAD PUSH2 0xA66 DUP2 PUSH2 0xA12 JUMP JUMPDEST PUSH2 0xA70 DUP2 DUP7 PUSH2 0x84A JUMP JUMPDEST SWAP5 POP PUSH1 0x1 DUP3 AND PUSH1 0x0 DUP2 EQ PUSH2 0xA8B JUMPI PUSH1 0x1 DUP2 EQ PUSH2 0xA9D JUMPI PUSH2 0xAD0 JUMP JUMPDEST PUSH1 0xFF NOT DUP4 AND DUP7 MSTORE PUSH1 0x20 DUP7 ADD SWAP4 POP PUSH2 0xAD0 JUMP JUMPDEST PUSH2 0xAA6 DUP6 PUSH2 0xA44 JUMP JUMPDEST PUSH1 0x0 JUMPDEST DUP4 DUP2 LT ISZERO PUSH2 0xAC8 JUMPI DUP2 SLOAD DUP2 DUP10 ADD MSTORE PUSH1 0x1 DUP3 ADD SWAP2 POP PUSH1 0x20 DUP2 ADD SWAP1 POP PUSH2 0xAA9 JUMP JUMPDEST DUP1 DUP9 ADD SWAP6 POP POP POP JUMPDEST POP POP POP SWAP3 SWAP2 POP POP JUMP JUMPDEST PUSH1 0x0 PUSH1 0x40 DUP3 ADD SWAP1 POP DUP2 DUP2 SUB PUSH1 0x0 DUP4 ADD MSTORE PUSH2 0xAF3 DUP2 DUP6 PUSH2 0xA59 JUMP JUMPDEST SWAP1 POP PUSH2 0xB02 PUSH1 0x20 DUP4 ADD DUP5 PUSH2 0x904 JUMP JUMPDEST SWAP4 SWAP3 POP POP POP JUMP JUMPDEST PUSH32 0x5573657220616C72656164792072656769737465726564000000000000000000 PUSH1 0x0 DUP3 ADD MSTORE POP JUMP JUMPDEST PUSH1 0x0 PUSH2 0xB3F PUSH1 0x17 DUP4 PUSH2 0x84A JUMP JUMPDEST SWAP2 POP PUSH2 0xB4A DUP3 PUSH2 0xB09 JUMP JUMPDEST PUSH1 0x20 DUP3 ADD SWAP1 POP SWAP2 SWAP1 POP JUMP JUMPDEST PUSH1 0x0 PUSH1 0x20 DUP3 ADD SWAP1 POP DUP2 DUP2 SUB PUSH1 0x0 DUP4 ADD MSTORE PUSH2 0xB6E DUP2 PUSH2 0xB32 JUMP JUMPDEST SWAP1 POP SWAP2 SWAP1 POP JUMP JUMPDEST PUSH1 0x0 PUSH1 0x40 DUP3 ADD SWAP1 POP DUP2 DUP2 SUB PUSH1 0x0 DUP4 ADD MSTORE PUSH2 0xB8F DUP2 DUP6 PUSH2 0x88E JUMP JUMPDEST SWAP1 POP PUSH2 0xB9E PUSH1 0x20 DUP4 ADD DUP5 PUSH2 0x904 JUMP JUMPDEST SWAP4 SWAP3 POP POP POP JUMP INVALID LOG2 PUSH5 0x6970667358 0x22 SLT KECCAK256 GASLIMIT PUSH13 0x3153E87B4C9CA6C89FF4E1A0EF 0xC4 0x49 0x4D CALLDATACOPY DIV 0xBB ORIGIN SWAP4 SWAP1 SELFDESTRUCT 0x4E 0xEB PUSH14 0x786F976764736F6C634300080A00 CALLER "
    },
    "gasEstimates": {
      "creation": {
        "codeDepositCost": "607000",
        "executionCost": "638",
        "totalCost": "607638"
      },
      "external": {
        "check()": "infinite",
        "registerUser(string)": "infinite",
        "users(address)": "infinite",
        "verifyUser(address)": "infinite"
      }
    },
    "methodIdentifiers": {
      "check()": "919840ad",
      "registerUser(string)": "704f1b94",
      "users(address)": "a87430ba",
      "verifyUser(address)": "4d813120"
    }
  },
  "storageLayout": {
    "storage": [
      {
        "astId": 94,
        "contract": "UserRegistration.sol:UserRegistration",
        "label": "users",
        "offset": 0,
        "slot": "0",
        "type": "t_mapping(t_address,t_struct(UserProfile)89_storage)"
      }
    ],
    "types": {
      "t_address": {
        "encoding": "inplace",
        "label": "address",
        "numberOfBytes": "20"
      },
      "t_bool": {
        "encoding": "inplace",
        "label": "bool",
        "numberOfBytes": "1"
      },
      "t_mapping(t_address,t_struct(UserProfile)89_storage)": {
        "encoding": "mapping",
        "key": "t_address",
        "label": "mapping(address => struct UserRegistration.UserProfile)",
        "numberOfBytes": "32",
        "value": "t_struct(UserProfile)89_storage"
      },
      "t_string_storage": {
        "encoding": "bytes",
        "label": "string",
        "numberOfBytes": "32"
      },
      "t_struct(UserProfile)89_storage": {
        "encoding": "inplace",
        "label": "struct UserRegistration.UserProfile",
        "members": [
          {
            "astId": 84,
            "contract": "UserRegistration.sol:UserRegistration",
            "label": "name",
            "offset": 0,
            "slot": "0",
            "type": "t_string_storage"
          },
          {
            "astId": 86,
            "contract": "UserRegistration.sol:UserRegistration",
            "label": "walletAddress",
            "offset": 0,
            "slot": "1",
            "type": "t_address"
          },
          {
            "astId": 88,
            "contract": "UserRegistration.sol:UserRegistration",
            "label": "isVerified",
            "offset": 20,
            "slot": "1",
            "type": "t_bool"
          }
        ],
        "numberOfBytes": "64"
      }
    }
  },
  "userdoc": {
    "kind": "user",
    "methods": {},
    "version": 1
  }
}