{
  "_format": "hh-sol-artifact-1",
  "contractName": "UserRegistration",
  "sourceName": "contracts/UserRegistration.sol",
  "abi": [
    {
      "anonymous": false,
      "inputs": [
        {
          "indexed": true,
          "internalType": "address",
          "name": "user",
          "type": "address"
        },
        {
          "indexed": false,
          "internalType": "string",
          "name": "name",
          "type": "string"
        },
        {
          "indexed": false,
          "internalType": "bool",
          "name": "isVerified",
          "type": "bool"
        }
      ],
      "name": "UserRegistered",
      "type": "event"
    },
    {
      "inputs": [],
      "name": "check",
      "outputs": [
        {
          "internalType": "string",
          "name": "",
          "type": "string"
        }
      ],
      "stateMutability": "pure",
      "type": "function"
    },
    {
      "inputs": [
        {
          "internalType": "string",
          "name": "_name",
          "type": "string"
        }
      ],
      "name": "registerUser",
      "outputs": [],
      "stateMutability": "nonpayable",
      "type": "function"
    },
    {
      "inputs": [
        {
          "internalType": "address",
          "name": "",
          "type": "address"
        }
      ],
      "name": "users",
      "outputs": [
        {
          "internalType": "string",
          "name": "name",
          "type": "string"
        },
        {
          "internalType": "address",
          "name": "walletAddress",
          "type": "address"
        },
        {
          "internalType": "bool",
          "name": "isVerified",
          "type": "bool"
        }
      ],
      "stateMutability": "view",
      "type": "function"
    },
    {
      "inputs": [
        {
          "internalType": "address",
          "name": "_userAddress",
          "type": "address"
        }
      ],
      "name": "verifyUser",
      "outputs": [],
      "stateMutability": "nonpayable",
      "type": "function"
    }
  ],
  "bytecode": "0x608060405234801561001057600080fd5b50610d9e806100206000396000f3fe608060405234801561001057600080fd5b506004361061004c5760003560e01c80634d81312014610051578063704f1b941461006d578063919840ad14610089578063a87430ba146100a7575b600080fd5b61006b600480360381019061006691906105d9565b6100d9565b005b6100876004803603810190610082919061074c565b610235565b005b61009161044b565b60405161009e9190610814565b60405180910390f35b6100c160048036038101906100bc91906105d9565b610488565b6040516100d093929190610860565b60405180910390f35b8073ffffffffffffffffffffffffffffffffffffffff163373ffffffffffffffffffffffffffffffffffffffff1614610147576040517f08c379a000000000000000000000000000000000000000000000000000000000815260040161013e90610910565b60405180910390fd5b60016000808373ffffffffffffffffffffffffffffffffffffffff1673ffffffffffffffffffffffffffffffffffffffff16815260200190815260200160002060010160146101000a81548160ff0219169083151502179055508073ffffffffffffffffffffffffffffffffffffffff167f0b2d2fe99b0620e0994de6f522eb19dcc5b5fd39b27be67cea0547c4ed9dbdfc6000808473ffffffffffffffffffffffffffffffffffffffff1673ffffffffffffffffffffffffffffffffffffffff168152602001908152602001600020600001600160405161022a929190610a29565b60405180910390a250565b600073ffffffffffffffffffffffffffffffffffffffff166000803373ffffffffffffffffffffffffffffffffffffffff1673ffffffffffffffffffffffffffffffffffffffff16815260200190815260200160002060010160009054906101000a900473ffffffffffffffffffffffffffffffffffffffff1673ffffffffffffffffffffffffffffffffffffffff1614610305576040517f08c379a00000000000000000000000000000000000000000000000000000000081526004016102fc90610aa5565b60405180910390fd5b60405180606001604052808281526020013373ffffffffffffffffffffffffffffffffffffffff168152602001600015158152506000803373ffffffffffffffffffffffffffffffffffffffff1673ffffffffffffffffffffffffffffffffffffffff168152602001908152602001600020600082015181600001908161038c9190610c66565b5060208201518160010160006101000a81548173ffffffffffffffffffffffffffffffffffffffff021916908373ffffffffffffffffffffffffffffffffffffffff16021790555060408201518160010160146101000a81548160ff0219169083151502179055509050503373ffffffffffffffffffffffffffffffffffffffff167f0b2d2fe99b0620e0994de6f522eb19dcc5b5fd39b27be67cea0547c4ed9dbdfc826000604051610440929190610d38565b60405180910390a250565b60606040518060400160405280600a81526020017f48656c6c6f205072656d00000000000000000000000000000000000000000000815250905090565b60006020528060005260406000206000915090508060000180546104ab9061095f565b80601f01602080910402602001604051908101604052809291908181526020018280546104d79061095f565b80156105245780601f106104f957610100808354040283529160200191610524565b820191906000526020600020905b81548152906001019060200180831161050757829003601f168201915b5050505050908060010160009054906101000a900473ffffffffffffffffffffffffffffffffffffffff16908060010160149054906101000a900460ff16905083565b6000604051905090565b600080fd5b600080fd5b600073ffffffffffffffffffffffffffffffffffffffff82169050919050565b60006105a68261057b565b9050919050565b6105b68161059b565b81146105c157600080fd5b50565b6000813590506105d3816105ad565b92915050565b6000602082840312156105ef576105ee610571565b5b60006105fd848285016105c4565b91505092915050565b600080fd5b600080fd5b6000601f19601f8301169050919050565b7f4e487b7100000000000000000000000000000000000000000000000000000000600052604160045260246000fd5b61065982610610565b810181811067ffffffffffffffff8211171561067857610677610621565b5b80604052505050565b600061068b610567565b90506106978282610650565b919050565b600067ffffffffffffffff8211156106b7576106b6610621565b5b6106c082610610565b9050602081019050919050565b82818337600083830152505050565b60006106ef6106ea8461069c565b610681565b90508281526020810184848401111561070b5761070a61060b565b5b6107168482856106cd565b509392505050565b600082601f83011261073357610732610606565b5b81356107438482602086016106dc565b91505092915050565b60006020828403121561076257610761610571565b5b600082013567ffffffffffffffff8111156107805761077f610576565b5b61078c8482850161071e565b91505092915050565b600081519050919050565b600082825260208201905092915050565b60005b838110156107cf5780820151818401526020810190506107b4565b60008484015250505050565b60006107e682610795565b6107f081856107a0565b93506108008185602086016107b1565b61080981610610565b840191505092915050565b6000602082019050818103600083015261082e81846107db565b905092915050565b61083f8161059b565b82525050565b60008115159050919050565b61085a81610845565b82525050565b6000606082019050818103600083015261087a81866107db565b90506108896020830185610836565b6108966040830184610851565b949350505050565b7f566572696669636174696f6e2063616e206f6e6c7920626520706572666f726d60008201527f65642062792074686520757365722e0000000000000000000000000000000000602082015250565b60006108fa602f836107a0565b91506109058261089e565b604082019050919050565b60006020820190508181036000830152610929816108ed565b9050919050565b7f4e487b7100000000000000000000000000000000000000000000000000000000600052602260045260246000fd5b6000600282049050600182168061097757607f821691505b60208210810361098a57610989610930565b5b50919050565b60008190508160005260206000209050919050565b600081546109b28161095f565b6109bc81866107a0565b945060018216600081146109d757600181146109ed57610a20565b60ff198316865281151560200286019350610a20565b6109f685610990565b60005b83811015610a18578154818901526001820191506020810190506109f9565b808801955050505b50505092915050565b60006040820190508181036000830152610a4381856109a5565b9050610a526020830184610851565b9392505050565b7f5573657220616c72656164792072656769737465726564000000000000000000600082015250565b6000610a8f6017836107a0565b9150610a9a82610a59565b602082019050919050565b60006020820190508181036000830152610abe81610a82565b9050919050565b60006020601f8301049050919050565b600082821b905092915050565b600060088302610b127fffffffffffffffffffffffffffffffffffffffffffffffffffffffffffffffff82610ad5565b610b1c8683610ad5565b95508019841693508086168417925050509392505050565b6000819050919050565b6000819050919050565b6000610b63610b5e610b5984610b34565b610b3e565b610b34565b9050919050565b6000819050919050565b610b7d83610b48565b610b91610b8982610b6a565b848454610ae2565b825550505050565b600090565b610ba6610b99565b610bb1818484610b74565b505050565b5b81811015610bd557610bca600082610b9e565b600181019050610bb7565b5050565b601f821115610c1a57610beb81610990565b610bf484610ac5565b81016020851015610c03578190505b610c17610c0f85610ac5565b830182610bb6565b50505b505050565b600082821c905092915050565b6000610c3d60001984600802610c1f565b1980831691505092915050565b6000610c568383610c2c565b9150826002028217905092915050565b610c6f82610795565b67ffffffffffffffff811115610c8857610c87610621565b5b610c92825461095f565b610c9d828285610bd9565b600060209050601f831160018114610cd05760008415610cbe578287015190505b610cc88582610c4a565b865550610d30565b601f198416610cde86610990565b60005b82811015610d0657848901518255600182019150602085019450602081019050610ce1565b86831015610d235784890151610d1f601f891682610c2c565b8355505b6001600288020188555050505b505050505050565b60006040820190508181036000830152610d5281856107db565b9050610d616020830184610851565b939250505056fea2646970667358221220454021e61e14dddc529feb7a89550fab7900c11546c4ee164ef9e54ca6c63ba164736f6c63430008180033",
  "linkReferences": {},
  "deployedLinkReferences": {}
}